{"abi":[{"type":"constructor","inputs":[{"name":"tokenA_","type":"address","internalType":"address"},{"name":"tokenB_","type":"address","internalType":"address"}],"stateMutability":"nonpayable"},{"type":"function","name":"addLiquidity","inputs":[{"name":"amountADesired","type":"uint256","internalType":"uint256"},{"name":"amountBDesired","type":"uint256","internalType":"uint256"},{"name":"minAmountA","type":"uint256","internalType":"uint256"},{"name":"minAmountB","type":"uint256","internalType":"uint256"}],"outputs":[{"name":"amountA","type":"uint256","internalType":"uint256"},{"name":"amountB","type":"uint256","internalType":"uint256"},{"name":"liquidity","type":"uint256","internalType":"uint256"}],"stateMutability":"nonpayable"},{"type":"function","name":"getAmountOut","inputs":[{"name":"amountIn","type":"uint256","internalType":"uint256"},{"name":"reserveIn","type":"uint256","internalType":"uint256"},{"name":"reserveOut","type":"uint256","internalType":"uint256"}],"outputs":[{"name":"amountOut","type":"uint256","internalType":"uint256"}],"stateMutability":"pure"},{"type":"function","name":"getAmountOutYul","inputs":[{"name":"amountIn","type":"uint256","internalType":"uint256"},{"name":"reserveIn","type":"uint256","internalType":"uint256"},{"name":"reserveOut","type":"uint256","internalType":"uint256"}],"outputs":[{"name":"amountOut","type":"uint256","internalType":"uint256"}],"stateMutability":"pure"},{"type":"function","name":"lpToken","inputs":[],"outputs":[{"name":"","type":"address","internalType":"contract LPToken"}],"stateMutability":"view"},{"type":"function","name":"quoteAForB","inputs":[{"name":"amountIn","type":"uint256","internalType":"uint256"}],"outputs":[{"name":"","type":"uint256","internalType":"uint256"}],"stateMutability":"view"},{"type":"function","name":"quoteBForA","inputs":[{"name":"amountIn","type":"uint256","internalType":"uint256"}],"outputs":[{"name":"","type":"uint256","internalType":"uint256"}],"stateMutability":"view"},{"type":"function","name":"removeLiquidity","inputs":[{"name":"lpAmount","type":"uint256","internalType":"uint256"},{"name":"minAmountA","type":"uint256","internalType":"uint256"},{"name":"minAmountB","type":"uint256","internalType":"uint256"}],"outputs":[{"name":"amountA","type":"uint256","internalType":"uint256"},{"name":"amountB","type":"uint256","internalType":"uint256"}],"stateMutability":"nonpayable"},{"type":"function","name":"reserveA","inputs":[],"outputs":[{"name":"","type":"uint256","internalType":"uint256"}],"stateMutability":"view"},{"type":"function","name":"reserveB","inputs":[],"outputs":[{"name":"","type":"uint256","internalType":"uint256"}],"stateMutability":"view"},{"type":"function","name":"swap","inputs":[{"name":"tokenIn","type":"address","internalType":"address"},{"name":"amountIn","type":"uint256","internalType":"uint256"},{"name":"minAmountOut","type":"uint256","internalType":"uint256"}],"outputs":[{"name":"amountOut","type":"uint256","internalType":"uint256"}],"stateMutability":"nonpayable"},{"type":"function","name":"tokenA","inputs":[],"outputs":[{"name":"","type":"address","internalType":"address"}],"stateMutability":"view"},{"type":"function","name":"tokenB","inputs":[],"outputs":[{"name":"","type":"address","internalType":"address"}],"stateMutability":"view"},{"type":"event","name":"LiquidityAdded","inputs":[{"name":"provider","type":"address","indexed":true,"internalType":"address"},{"name":"amountA","type":"uint256","indexed":true,"internalType":"uint256"},{"name":"amountB","type":"uint256","indexed":true,"internalType":"uint256"},{"name":"lpTokensMinted","type":"uint256","indexed":false,"internalType":"uint256"}],"anonymous":false},{"type":"event","name":"LiquidityRemoved","inputs":[{"name":"provider","type":"address","indexed":true,"internalType":"address"},{"name":"amountA","type":"uint256","indexed":true,"internalType":"uint256"},{"name":"amountB","type":"uint256","indexed":true,"internalType":"uint256"},{"name":"lpTokensBurned","type":"uint256","indexed":false,"internalType":"uint256"}],"anonymous":false},{"type":"event","name":"Swap","inputs":[{"name":"trader","type":"address","indexed":true,"internalType":"address"},{"name":"tokenIn","type":"address","indexed":true,"internalType":"address"},{"name":"tokenOut","type":"address","indexed":true,"internalType":"address"},{"name":"amountIn","type":"uint256","indexed":false,"internalType":"uint256"},{"name":"amountOut","type":"uint256","indexed":false,"internalType":"uint256"}],"anonymous":false},{"type":"error","name":"AddressEmptyCode","inputs":[{"name":"target","type":"address","internalType":"address"}]},{"type":"error","name":"AddressInsufficientBalance","inputs":[{"name":"account","type":"address","internalType":"address"}]},{"type":"error","name":"EmptyReserveIn","inputs":[]},{"type":"error","name":"EmptyReserveOut","inputs":[]},{"type":"error","name":"FailedInnerCall","inputs":[]},{"type":"error","name":"IdenticalTokens","inputs":[]},{"type":"error","name":"InsufficientBurnA","inputs":[]},{"type":"error","name":"InsufficientBurnB","inputs":[]},{"type":"error","name":"InsufficientLiquidity","inputs":[]},{"type":"error","name":"InvalidToken","inputs":[]},{"type":"error","name":"NoLiquidity","inputs":[]},{"type":"error","name":"ReentrancyGuardReentrantCall","inputs":[]},{"type":"error","name":"SafeERC20FailedOperation","inputs":[{"name":"token","type":"address","internalType":"address"}]},{"type":"error","name":"Slippage","inputs":[]},{"type":"error","name":"SlippageA","inputs":[]},{"type":"error","name":"SlippageB","inputs":[]},{"type":"error","name":"ZeroAddressA","inputs":[]},{"type":"error","name":"ZeroAddressB","inputs":[]},{"type":"error","name":"ZeroAmount","inputs":[]},{"type":"error","name":"ZeroAmountA","inputs":[]},{"type":"error","name":"ZeroAmountB","inputs":[]},{"type":"error","name":"ZeroAmountIn","inputs":[]},{"type":"error","name":"ZeroAmountOut","inputs":[]}],"bytecode":{"object":"0x60e0346101af57601f611aab38819003918201601f19168301916001600160401b0383118484101761016e5780849260409485528339810103126101af57610052602061004b836101b3565b92016101b3565b60015f55906001600160a01b03811680156101a0576001600160a01b03831690811561019157146101825760805260a052604051610b8a808201906001600160401b0382118383101761016e5760e0918391610f21833960608152600c60608201526b20a6a6902628102a37b5b2b760a11b608082015260a06020820152600660a0820152650414d4d2d4c560d41b60c08201523060408201520301905ff080156101635760c052604051610d5990816101c882396080518181816102160152818161049f0152818161078901526109a1015260a05181818161024b015281816104e101528181610629015281816107bb0152610922015260c05181818161017f0152818161069901526108de0152f35b6040513d5f823e3d90fd5b634e487b7160e01b5f52604160045260245ffd5b635c6d7b7360e01b5f5260045ffd5b634efe9a9160e11b5f5260045ffd5b635da54cb760e01b5f5260045ffd5b5f80fd5b51906001600160a01b03821682036101af5756fe60806040526004361015610011575f80fd5b5f5f3560e01c8063054d50d4146109d05780630fc63d101461098c57806319e36f3b1461096f57806330768399146109515780635f64b55b1461090d5780635fcbd285146108c9578063857620e11461066c5780639f1d0f5914610465578063aebf3e4114610120578063bd7b5def146100e5578063d959d269146100be5763dc5fa6c51461009e575f80fd5b346100bb57806003193601126100bb576020600154604051908152f35b80fd5b50346100bb5760203660031901126100bb5760206100dd600435610b45565b604051908152f35b50346100bb576100f4366109e9565b9283929192158315178215176100bb57506103e5602093604051936103e8838502910201920202048152f35b50346100bb5760803660031901126100bb57600435602435610140610b6d565b8115610456578015610447576001549081158061043d575b15610402575b60443583106103f35760643581106103e4576040516318160ddd60e01b81527f00000000000000000000000000000000000000000000000000000000000000006001600160a01b031690602081600481855afa9081156103d95786916103a3575b508061036357506101d08285610a03565b8060011c6001810180911161034f57815b828210610330575050925b831561032157846101fc91610a2a565b60015561020b82600254610a2a565b6002556102438430337f00000000000000000000000000000000000000000000000000000000000000006001600160a01b0316610bce565b6102788230337f00000000000000000000000000000000000000000000000000000000000000006001600160a01b0316610bce565b803b1561031d576040516340c10f1960e01b8152336004820152602481018490529085908290604490829084905af18015610312576102f9575b50600160609482856040518681527f64b83944e79c3ce8d4c297411de637c3e102d064677aac0c163976ebdcd6f50e60203392a45560405192835260208301526040820152f35b610304858092610b02565b61030e575f6102b2565b8380fd5b6040513d87823e3d90fd5b8480fd5b63bb55fd2760e01b8652600486fd5b909150610346826103418184610a37565b610a2a565b60011c906101e1565b634e487b7160e01b87526011600452602487fd5b61038c61038361037c86610377858a610a03565b610a37565b9285610a03565b60025490610a37565b8082101561039c57505b926101ec565b9050610396565b90506020813d6020116103d1575b816103be60209383610b02565b810103126103cd57515f6101bf565b5f80fd5b3d91506103b1565b6040513d88823e3d90fd5b63d2aecd3760e01b8452600484fd5b630d5a2adb60e01b8452600484fd5b9160025490610415836103778484610a03565b908482111561043457505061042e906103778385610a03565b9161015e565b9350905061015e565b5060025415610158565b6344c8b67960e01b8352600483fd5b6365d201b760e01b8352600483fd5b50346100bb5760603660031901126100bb576004356001600160a01b0381169081900361066857602435610497610b6d565b8015610659577f00000000000000000000000000000000000000000000000000000000000000006001600160a01b03811683149290831580610626575b61061757831561061257507f00000000000000000000000000000000000000000000000000000000000000005b831561060957600154935b80156105fc5761052160025480965b86610a55565b9485156105ed5760443586106105de57851015610321579160019391602096935f146105bd57610552838654610a2a565b855561056086600254610b38565b6002555b61057083303385610bce565b848060a01b031691610583863385610b8b565b60405190815285878201527fcd3829a3813dc3cdd188fd3d01dcf3268c16be2fdd2dd21d0665418816e4606260403392a455604051908152f35b6105c983600254610a2a565b6002556105d7868654610b38565b8555610564565b6307dd37f760e41b8752600487fd5b631125efa160e21b8752600487fd5b610521600154809661051b565b6002549361050c565b610501565b63c1ab6dc160e01b8552600485fd5b507f00000000000000000000000000000000000000000000000000000000000000006001600160a01b03168214156104d4565b63990965c160e01b8352600483fd5b5080fd5b50346103cd5761067b366109e9565b91610684610b6d565b80156108ba576040516318160ddd60e01b81527f00000000000000000000000000000000000000000000000000000000000000006001600160a01b03169490602081600481895afa908115610832575f91610888575b508015610879576001546106f2826103778684610a03565b95610704600254936103778786610a03565b95871061086a57851061085b57851561084c57841561083d576107349161072c878793610b38565b600155610b38565b600255843b156103cd57604051632770a7eb60e21b815233600482015260248101839052945f908690604490829084905af194851561083257846001938592604098610818575b506107ae8233878060a01b037f000000000000000000000000000000000000000000000000000000000000000016610b8b565b6107e08333878060a01b037f000000000000000000000000000000000000000000000000000000000000000016610b8b565b87519081527f1dc8bb69df2b8e91fbdcbfcf93d951b3f0000f085a95fe3f7946d6161439245d60203392a45582519182526020820152f35b90935061082892505f9150610b02565b82845f925f61077b565b6040513d5f823e3d90fd5b63f5c6412f60e01b5f5260045ffd5b6311017f2960e01b5f5260045ffd5b63d2aecd3760e01b5f5260045ffd5b630d5a2adb60e01b5f5260045ffd5b636180f03f60e11b5f5260045ffd5b90506020813d6020116108b2575b816108a360209383610b02565b810103126103cd57515f6106da565b3d9150610896565b631f2a200560e01b5f5260045ffd5b346103cd575f3660031901126103cd576040517f00000000000000000000000000000000000000000000000000000000000000006001600160a01b03168152602090f35b346103cd575f3660031901126103cd576040517f00000000000000000000000000000000000000000000000000000000000000006001600160a01b03168152602090f35b346103cd5760203660031901126103cd5760206100dd600435610ad6565b346103cd575f3660031901126103cd576020600254604051908152f35b346103cd575f3660031901126103cd576040517f00000000000000000000000000000000000000000000000000000000000000006001600160a01b03168152602090f35b346103cd5760206100dd6109e3366109e9565b91610a55565b60609060031901126103cd57600435906024359060443590565b81810292918115918404141715610a1657565b634e487b7160e01b5f52601160045260245ffd5b91908201809211610a1657565b8115610a41570490565b634e487b7160e01b5f52601260045260245ffd5b918215610ac7578115610ab8578015610aa9576103e583029283046103e503610a1657610a829083610a03565b906103e881029081046103e803610a1657610aa692610aa091610a2a565b90610a37565b90565b631648bb2560e21b5f5260045ffd5b63228eb05960e01b5f5260045ffd5b63990965c160e01b5f5260045ffd5b60015480158015610af8575b610af257600254610aa692610a55565b50505f90565b5060025415610ae2565b90601f8019910116810190811067ffffffffffffffff821117610b2457604052565b634e487b7160e01b5f52604160045260245ffd5b91908203918211610a1657565b6001549081158015610b63575b610af257610aa69160025491610a55565b5060025415610b52565b60025f5414610b7c5760025f55565b633ee5aeb560e01b5f5260045ffd5b60405163a9059cbb60e01b60208201526001600160a01b03929092166024830152604480830193909352918152610bcc91610bc7606483610b02565b610c12565b565b6040516323b872dd60e01b60208201526001600160a01b039283166024820152929091166044830152606480830193909352918152610bcc91610bc7608483610b02565b81516001600160a01b03909116915f91829160200182855af13d15610cb9573d67ffffffffffffffff8111610b2457610c6d9160405191610c5d6020601f19601f8401160184610b02565b82523d5f602084013e5b83610cc5565b8051908115159182610c95575b5050610c835750565b635274afe760e01b5f5260045260245ffd5b81925090602091810103126103cd57602001518015908115036103cd575f80610c7a565b610c6d90606090610c67565b90610ce95750805115610cda57805190602001fd5b630a12f52160e11b5f5260045ffd5b81511580610d1a575b610cfa575090565b639996b31560e01b5f9081526001600160a01b0391909116600452602490fd5b50803b15610cf256fea2646970667358221220ffeadaa50948efd67d9560dceda89c4744b4d1758473b4d546967891a09b6d6164736f6c6343000821003360a06040523461036357610b8a8038038061001981610367565b9283398101906060818303126103635780516001600160401b038111610363578261004591830161038c565b60208201519092906001600160401b0381116103635760409161006991840161038c565b9101516001600160a01b03811680820361036357156103545782516001600160401b03811161025d575f54600181811c9116801561034a575b602082101461023f57601f81116102dd575b506020601f821160011461027c57819293945f92610271575b50508160011b915f199060031b1c1916175f555b81516001600160401b03811161025d57600154600181811c91168015610253575b602082101461023f57601f81116101d1575b50602092601f821160011461017057928192935f92610165575b50508160011b915f199060031b1c1916176001555b6080526040516107ac90816103de82396080518181816103df01526107370152f35b015190505f8061012e565b601f1982169360015f52805f20915f5b8681106101b957508360019596106101a1575b505050811b01600155610143565b01515f1960f88460031b161c191690555f8080610193565b91926020600181928685015181550194019201610180565b818111156101145760015f52601f820160051c7fb10e2d527612073b26eecdfd717e6a320cf44b4afac2b0732d9fcbe2b7fa0cf660208410610237575b81601f9101920160051c03905f5b82811061022a575050610114565b5f8282015560010161021c565b5f915061020e565b634e487b7160e01b5f52602260045260245ffd5b90607f1690610102565b634e487b7160e01b5f52604160045260245ffd5b015190505f806100cd565b601f198216905f8052805f20915f5b8181106102c5575095836001959697106102ad575b505050811b015f556100e1565b01515f1960f88460031b161c191690555f80806102a0565b9192602060018192868b01518155019401920161028b565b818111156100b4575f8052601f820160051c7f290decd9548b62a8d60345a988386fc84ba6bc95484008f6362f93160ef3e56360208410610342575b81601f9101920160051c03905f5b8281106103355750506100b4565b5f82820155600101610327565b5f9150610319565b90607f16906100a2565b63d92e233d60e01b5f5260045ffd5b5f80fd5b6040519190601f01601f191682016001600160401b0381118382101761025d57604052565b81601f82011215610363578051906001600160401b03821161025d576103bb601f8301601f1916602001610367565b928284526020838301011161036357815f9260208093018386015e830101529056fe60806040526004361015610011575f80fd5b5f3560e01c806306fdde0314610567578063095ea7b3146104f457806318160ddd146104d757806323b872dd1461040e5780632a943945146103ca5780632e0f2625146103af57806340c10f191461032c57806370a08231146102f457806395d89b41146101d65780639dc29fac14610122578063a9059cbb146100f15763dd62ed3e1461009d575f80fd5b346100ed5760403660031901126100ed576100b6610663565b6100be610679565b6001600160a01b039182165f908152600460209081526040808320949093168252928352819020549051908152f35b5f80fd5b346100ed5760403660031901126100ed5761011761010d610663565b60243590336106bd565b602060405160018152f35b346100ed5760403660031901126100ed5761013b610663565b60243590610147610735565b6001600160a01b031680156101c757805f52600360205260405f2054908282106101b857610176835f9361068f565b8183526003602052604083205561018f8360025461068f565b6002557fddf252ad1be2c89b69c2b068fc378daa952ba7f163c4a11628f55a4df523b3ef8280a4005b631e9acf1760e31b5f5260045ffd5b63d92e233d60e01b5f5260045ffd5b346100ed575f3660031901126100ed576040515f6001548060011c906001811680156102ea575b6020831081146102d6578285529081156102ba5750600114610264575b50819003601f01601f191681019067ffffffffffffffff821181831017610250576040829052819061024c9082610639565b0390f35b634e487b7160e01b5f52604160045260245ffd5b60015f9081529091507fb10e2d527612073b26eecdfd717e6a320cf44b4afac2b0732d9fcbe2b7fa0cf65b8282106102a45750602091508201018261021a565b600181602092548385880101520191019061028f565b90506020925060ff191682840152151560051b8201018261021a565b634e487b7160e01b5f52602260045260245ffd5b91607f16916101fd565b346100ed5760203660031901126100ed576001600160a01b03610315610663565b165f526003602052602060405f2054604051908152f35b346100ed5760403660031901126100ed57610345610663565b60243590610351610735565b6001600160a01b031680156101c75761036c826002546106b0565b600255805f52600360205260405f206103868382546106b0565b90555f7fddf252ad1be2c89b69c2b068fc378daa952ba7f163c4a11628f55a4df523b3ef8180a4005b346100ed575f3660031901126100ed57602060405160128152f35b346100ed575f3660031901126100ed576040517f00000000000000000000000000000000000000000000000000000000000000006001600160a01b03168152602090f35b346100ed5760603660031901126100ed57610427610663565b61042f610679565b6001600160a01b0382165f8181526004602090815260408083203384529091529020549260443592918385106104c857610117948460018201610475575b5050506106bd565b61047e9161068f565b5f82815260046020908152604080832033808552925282208390559192907f8c5be1e5ebec7d5bd14f71427d1e84f3dd0314c0f7b2291e5b200ac8c7c3b9259080a484808461046d565b631eb49d6d60e11b5f5260045ffd5b346100ed575f3660031901126100ed576020600254604051908152f35b346100ed5760403660031901126100ed57602061050f610663565b602435335f526004835260405f2060018060a01b0383165f5283528060405f20556040519160018060a01b0316337f8c5be1e5ebec7d5bd14f71427d1e84f3dd0314c0f7b2291e5b200ac8c7c3b9255f80a460018152f35b346100ed575f3660031901126100ed576040515f5f548060011c9060018116801561062f575b6020831081146102d6578285529081156102ba57506001146105db5750819003601f01601f191681019067ffffffffffffffff821181831017610250576040829052819061024c9082610639565b5f8080529091507f290decd9548b62a8d60345a988386fc84ba6bc95484008f6362f93160ef3e5635b8282106106195750602091508201018261021a565b6001816020925483858801015201910190610604565b91607f169161058d565b602060409281835280519182918282860152018484015e5f828201840152601f01601f1916010190565b600435906001600160a01b03821682036100ed57565b602435906001600160a01b03821682036100ed57565b9190820391821161069c57565b634e487b7160e01b5f52601160045260245ffd5b9190820180921161069c57565b6001600160a01b039091169081156101c7576001600160a01b03165f818152600360205260409020548381106101b8578390825f5260036020520360405f2055815f52600360205260405f208381540190557fddf252ad1be2c89b69c2b068fc378daa952ba7f163c4a11628f55a4df523b3ef5f80a4565b7f00000000000000000000000000000000000000000000000000000000000000006001600160a01b0316330361076757565b6306da2ed360e01b5f5260045ffdfea26469706673582212205ae04a5b754f1e2356aa67b648bb113b3065e527b11640547aed46d944daf09064736f6c63430008210033","linkReferences":{}},"methodIdentifiers":{"addLiquidity(uint256,uint256,uint256,uint256)":"aebf3e41","getAmountOut(uint256,uint256,uint256)":"054d50d4","getAmountOutYul(uint256,uint256,uint256)":"bd7b5def","lpToken()":"5fcbd285","quoteAForB(uint256)":"d959d269","quoteBForA(uint256)":"30768399","removeLiquidity(uint256,uint256,uint256)":"857620e1","reserveA()":"dc5fa6c5","reserveB()":"19e36f3b","swap(address,uint256,uint256)":"9f1d0f59","tokenA()":"0fc63d10","tokenB()":"5f64b55b"},"id":96}