{"abi":[{"type":"constructor","inputs":[{"name":"baseURI","type":"string","internalType":"string"},{"name":"vrfCoordinator","type":"address","internalType":"address"},{"name":"keyHash_","type":"bytes32","internalType":"bytes32"},{"name":"subscriptionId_","type":"uint256","internalType":"uint256"}],"stateMutability":"nonpayable"},{"type":"function","name":"CALLBACK_GAS_LIMIT","inputs":[],"outputs":[{"name":"","type":"uint32","internalType":"uint32"}],"stateMutability":"view"},{"type":"function","name":"GENEROSITY","inputs":[],"outputs":[{"name":"","type":"uint256","internalType":"uint256"}],"stateMutability":"view"},{"type":"function","name":"HONESTY","inputs":[],"outputs":[{"name":"","type":"uint256","internalType":"uint256"}],"stateMutability":"view"},{"type":"function","name":"KINDNESS","inputs":[],"outputs":[{"name":"","type":"uint256","internalType":"uint256"}],"stateMutability":"view"},{"type":"function","name":"LAUGHTER","inputs":[],"outputs":[{"name":"","type":"uint256","internalType":"uint256"}],"stateMutability":"view"},{"type":"function","name":"LOYALTY","inputs":[],"outputs":[{"name":"","type":"uint256","internalType":"uint256"}],"stateMutability":"view"},{"type":"function","name":"MAGIC","inputs":[],"outputs":[{"name":"","type":"uint256","internalType":"uint256"}],"stateMutability":"view"},{"type":"function","name":"PINKIE_PIE","inputs":[],"outputs":[{"name":"","type":"uint256","internalType":"uint256"}],"stateMutability":"view"},{"type":"function","name":"REQUEST_CONFIRMATIONS","inputs":[],"outputs":[{"name":"","type":"uint16","internalType":"uint16"}],"stateMutability":"view"},{"type":"function","name":"STARLIGHT_GLIMMER","inputs":[],"outputs":[{"name":"","type":"uint256","internalType":"uint256"}],"stateMutability":"view"},{"type":"function","name":"acceptOwnership","inputs":[],"outputs":[],"stateMutability":"nonpayable"},{"type":"function","name":"balanceOf","inputs":[{"name":"owner","type":"address","internalType":"address"},{"name":"id","type":"uint256","internalType":"uint256"}],"outputs":[{"name":"","type":"uint256","internalType":"uint256"}],"stateMutability":"view"},{"type":"function","name":"balanceOfBatch","inputs":[{"name":"owners","type":"address[]","internalType":"address[]"},{"name":"ids","type":"uint256[]","internalType":"uint256[]"}],"outputs":[{"name":"balances","type":"uint256[]","internalType":"uint256[]"}],"stateMutability":"view"},{"type":"function","name":"burn","inputs":[{"name":"from","type":"address","internalType":"address"},{"name":"id","type":"uint256","internalType":"uint256"},{"name":"value","type":"uint256","internalType":"uint256"},{"name":"data","type":"bytes","internalType":"bytes"}],"outputs":[],"stateMutability":"nonpayable"},{"type":"function","name":"contractOwner","inputs":[],"outputs":[{"name":"","type":"address","internalType":"address"}],"stateMutability":"view"},{"type":"function","name":"craft","inputs":[{"name":"ponyId","type":"uint256","internalType":"uint256"}],"outputs":[{"name":"requestId","type":"uint256","internalType":"uint256"}],"stateMutability":"nonpayable"},{"type":"function","name":"dropBoostBps","inputs":[],"outputs":[{"name":"","type":"uint256","internalType":"uint256"}],"stateMutability":"view"},{"type":"function","name":"gameGovernor","inputs":[],"outputs":[{"name":"","type":"address","internalType":"address"}],"stateMutability":"view"},{"type":"function","name":"isApprovedForAll","inputs":[{"name":"owner","type":"address","internalType":"address"},{"name":"operator","type":"address","internalType":"address"}],"outputs":[{"name":"","type":"bool","internalType":"bool"}],"stateMutability":"view"},{"type":"function","name":"keyHash","inputs":[],"outputs":[{"name":"","type":"bytes32","internalType":"bytes32"}],"stateMutability":"view"},{"type":"function","name":"mint","inputs":[{"name":"to","type":"address","internalType":"address"},{"name":"id","type":"uint256","internalType":"uint256"},{"name":"value","type":"uint256","internalType":"uint256"},{"name":"data","type":"bytes","internalType":"bytes"}],"outputs":[],"stateMutability":"nonpayable"},{"type":"function","name":"mintBatch","inputs":[{"name":"to","type":"address","internalType":"address"},{"name":"ids","type":"uint256[]","internalType":"uint256[]"},{"name":"values","type":"uint256[]","internalType":"uint256[]"},{"name":"data","type":"bytes","internalType":"bytes"}],"outputs":[],"stateMutability":"nonpayable"},{"type":"function","name":"owner","inputs":[],"outputs":[{"name":"","type":"address","internalType":"address"}],"stateMutability":"view"},{"type":"function","name":"pendingCraftPonyId","inputs":[{"name":"","type":"uint256","internalType":"uint256"}],"outputs":[{"name":"","type":"uint256","internalType":"uint256"}],"stateMutability":"view"},{"type":"function","name":"pendingCraftUser","inputs":[{"name":"","type":"uint256","internalType":"uint256"}],"outputs":[{"name":"","type":"address","internalType":"address"}],"stateMutability":"view"},{"type":"function","name":"rawFulfillRandomWords","inputs":[{"name":"requestId","type":"uint256","internalType":"uint256"},{"name":"randomWords","type":"uint256[]","internalType":"uint256[]"}],"outputs":[],"stateMutability":"nonpayable"},{"type":"function","name":"recipes","inputs":[{"name":"","type":"uint256","internalType":"uint256"}],"outputs":[{"name":"honesty","type":"uint256","internalType":"uint256"},{"name":"kindness","type":"uint256","internalType":"uint256"},{"name":"laughter","type":"uint256","internalType":"uint256"},{"name":"generosity","type":"uint256","internalType":"uint256"},{"name":"loyalty","type":"uint256","internalType":"uint256"},{"name":"magic","type":"uint256","internalType":"uint256"}],"stateMutability":"view"},{"type":"function","name":"s_vrfCoordinator","inputs":[],"outputs":[{"name":"","type":"address","internalType":"contract IVRFCoordinatorV2Plus"}],"stateMutability":"view"},{"type":"function","name":"safeBatchTransferFrom","inputs":[{"name":"from","type":"address","internalType":"address"},{"name":"to","type":"address","internalType":"address"},{"name":"ids","type":"uint256[]","internalType":"uint256[]"},{"name":"values","type":"uint256[]","internalType":"uint256[]"},{"name":"data","type":"bytes","internalType":"bytes"}],"outputs":[],"stateMutability":"nonpayable"},{"type":"function","name":"safeTransferFrom","inputs":[{"name":"from","type":"address","internalType":"address"},{"name":"to","type":"address","internalType":"address"},{"name":"id","type":"uint256","internalType":"uint256"},{"name":"value","type":"uint256","internalType":"uint256"},{"name":"data","type":"bytes","internalType":"bytes"}],"outputs":[],"stateMutability":"nonpayable"},{"type":"function","name":"setApprovalForAll","inputs":[{"name":"operator","type":"address","internalType":"address"},{"name":"approved","type":"bool","internalType":"bool"}],"outputs":[],"stateMutability":"nonpayable"},{"type":"function","name":"setCoordinator","inputs":[{"name":"_vrfCoordinator","type":"address","internalType":"address"}],"outputs":[],"stateMutability":"nonpayable"},{"type":"function","name":"setDropBoostBps","inputs":[{"name":"newBps","type":"uint256","internalType":"uint256"}],"outputs":[],"stateMutability":"nonpayable"},{"type":"function","name":"setGovernor","inputs":[{"name":"gameGovernor_","type":"address","internalType":"address"}],"outputs":[],"stateMutability":"nonpayable"},{"type":"function","name":"setRecipe","inputs":[{"name":"ponyId","type":"uint256","internalType":"uint256"},{"name":"recipe","type":"tuple","internalType":"struct Equestria1155.Recipe","components":[{"name":"honesty","type":"uint256","internalType":"uint256"},{"name":"kindness","type":"uint256","internalType":"uint256"},{"name":"laughter","type":"uint256","internalType":"uint256"},{"name":"generosity","type":"uint256","internalType":"uint256"},{"name":"loyalty","type":"uint256","internalType":"uint256"},{"name":"magic","type":"uint256","internalType":"uint256"}]}],"outputs":[],"stateMutability":"nonpayable"},{"type":"function","name":"subscriptionId","inputs":[],"outputs":[{"name":"","type":"uint256","internalType":"uint256"}],"stateMutability":"view"},{"type":"function","name":"supportsInterface","inputs":[{"name":"interfaceId","type":"bytes4","internalType":"bytes4"}],"outputs":[{"name":"","type":"bool","internalType":"bool"}],"stateMutability":"pure"},{"type":"function","name":"transferOwnership","inputs":[{"name":"to","type":"address","internalType":"address"}],"outputs":[],"stateMutability":"nonpayable"},{"type":"function","name":"uri","inputs":[{"name":"tokenId","type":"uint256","internalType":"uint256"}],"outputs":[{"name":"","type":"string","internalType":"string"}],"stateMutability":"view"},{"type":"event","name":"ApprovalForAll","inputs":[{"name":"account","type":"address","indexed":true,"internalType":"address"},{"name":"operator","type":"address","indexed":true,"internalType":"address"},{"name":"approved","type":"bool","indexed":false,"internalType":"bool"}],"anonymous":false},{"type":"event","name":"CoordinatorSet","inputs":[{"name":"vrfCoordinator","type":"address","indexed":false,"internalType":"address"}],"anonymous":false},{"type":"event","name":"CraftFulfilled","inputs":[{"name":"requestId","type":"uint256","indexed":true,"internalType":"uint256"},{"name":"user","type":"address","indexed":true,"internalType":"address"},{"name":"ponyId","type":"uint256","indexed":true,"internalType":"uint256"}],"anonymous":false},{"type":"event","name":"CraftRequested","inputs":[{"name":"requestId","type":"uint256","indexed":true,"internalType":"uint256"},{"name":"user","type":"address","indexed":true,"internalType":"address"},{"name":"ponyId","type":"uint256","indexed":true,"internalType":"uint256"}],"anonymous":false},{"type":"event","name":"NewDropBoostBps","inputs":[{"name":"dropBoostBps","type":"uint256","indexed":true,"internalType":"uint256"}],"anonymous":false},{"type":"event","name":"NewGovernor","inputs":[{"name":"governor","type":"address","indexed":true,"internalType":"address"}],"anonymous":false},{"type":"event","name":"OwnershipTransferRequested","inputs":[{"name":"from","type":"address","indexed":true,"internalType":"address"},{"name":"to","type":"address","indexed":true,"internalType":"address"}],"anonymous":false},{"type":"event","name":"OwnershipTransferred","inputs":[{"name":"from","type":"address","indexed":true,"internalType":"address"},{"name":"to","type":"address","indexed":true,"internalType":"address"}],"anonymous":false},{"type":"event","name":"TransferBatch","inputs":[{"name":"operator","type":"address","indexed":true,"internalType":"address"},{"name":"from","type":"address","indexed":true,"internalType":"address"},{"name":"to","type":"address","indexed":true,"internalType":"address"},{"name":"ids","type":"uint256[]","indexed":false,"internalType":"uint256[]"},{"name":"values","type":"uint256[]","indexed":false,"internalType":"uint256[]"}],"anonymous":false},{"type":"event","name":"TransferSingle","inputs":[{"name":"operator","type":"address","indexed":true,"internalType":"address"},{"name":"from","type":"address","indexed":true,"internalType":"address"},{"name":"to","type":"address","indexed":true,"internalType":"address"},{"name":"id","type":"uint256","indexed":false,"internalType":"uint256"},{"name":"value","type":"uint256","indexed":false,"internalType":"uint256"}],"anonymous":false},{"type":"event","name":"URI","inputs":[{"name":"value","type":"string","indexed":false,"internalType":"string"},{"name":"id","type":"uint256","indexed":true,"internalType":"uint256"}],"anonymous":false},{"type":"error","name":"IdOwnerArrLengthMismatch","inputs":[]},{"type":"error","name":"IdValueArrLengthMismatch","inputs":[]},{"type":"error","name":"InsufficientBalance","inputs":[]},{"type":"error","name":"InvalidRecipe","inputs":[]},{"type":"error","name":"NotApproved","inputs":[]},{"type":"error","name":"NotEnoughGenerosity","inputs":[]},{"type":"error","name":"NotEnoughHonesty","inputs":[]},{"type":"error","name":"NotEnoughKindness","inputs":[]},{"type":"error","name":"NotEnoughLaughter","inputs":[]},{"type":"error","name":"NotEnoughLoyalty","inputs":[]},{"type":"error","name":"NotEnoughMagic","inputs":[]},{"type":"error","name":"NotGovernor","inputs":[]},{"type":"error","name":"NotOwner","inputs":[]},{"type":"error","name":"OnlyCoordinatorCanFulfill","inputs":[{"name":"have","type":"address","internalType":"address"},{"name":"want","type":"address","internalType":"address"}]},{"type":"error","name":"OnlyOwnerOrCoordinator","inputs":[{"name":"have","type":"address","internalType":"address"},{"name":"owner","type":"address","internalType":"address"},{"name":"coordinator","type":"address","internalType":"address"}]},{"type":"error","name":"ReentrancyGuardReentrantCall","inputs":[]},{"type":"error","name":"SelfApproval","inputs":[]},{"type":"error","name":"SmartContractNotAccepted","inputs":[]},{"type":"error","name":"TooManyIdFieldsInURL","inputs":[]},{"type":"error","name":"ZeroAddress","inputs":[]}],"bytecode":{"object":"0x60e0604052346105e8576129aa803803806100198161060b565b9283398101906080818303126105e85780516001600160401b0381116105e857810182601f820112156105e8578051906001600160401b0382116105c55761006a601f8301601f191660200161060b565b93828552602083830101116105e857815f9260208093018387015e8401015260208101516001600160a01b03811692908390036105e857606060408301519201519260015f5533156105e857600180546001600160a01b0319163317905580156105d957600380546001600160a01b031916919091179055600a6009556100ef6105ec565b600f8152600a60208083019182526064604084019081526014606085019081526005608086019081525f60a087018181526103e9909152600490945294517f56751dd9534a4025520708fb24b7b0d243a2b8aeda2c1c014349d4820461947c5592517f56751dd9534a4025520708fb24b7b0d243a2b8aeda2c1c014349d4820461947d55517f56751dd9534a4025520708fb24b7b0d243a2b8aeda2c1c014349d4820461947e5590517f56751dd9534a4025520708fb24b7b0d243a2b8aeda2c1c014349d4820461947f5590517f56751dd9534a4025520708fb24b7b0d243a2b8aeda2c1c014349d4820461948055517f56751dd9534a4025520708fb24b7b0d243a2b8aeda2c1c014349d48204619481556102096105ec565b60058152600360208083018281525f6040850181815260608601828152600f60808801908152605060a089019081526103ea8552600490965296517f8c2505006369de36d1519aa1e9b16fce0b87abbd5625d87bd45f52cb4e44f1ba5592517f8c2505006369de36d1519aa1e9b16fce0b87abbd5625d87bd45f52cb4e44f1bb55517f8c2505006369de36d1519aa1e9b16fce0b87abbd5625d87bd45f52cb4e44f1bc5590517f8c2505006369de36d1519aa1e9b16fce0b87abbd5625d87bd45f52cb4e44f1bd5592517f8c2505006369de36d1519aa1e9b16fce0b87abbd5625d87bd45f52cb4e44f1be55517f8c2505006369de36d1519aa1e9b16fce0b87abbd5625d87bd45f52cb4e44f1bf559093905b825181101561042557600219810181811161038457607b60f81b906001600160f81b03199061034b9086610630565b511614806103f6575b806103c8575b806103a7575b61036d575b60010161031c565b9380610398575f1981146103845760010193610365565b634e487b7160e01b5f52601160045260245ffd5b6335c542a160e01b5f5260045ffd5b50607d60f81b6001600160f81b03196103c08386610630565b511614610360565b505f19810181811161038457601960fa1b906001600160f81b0319906103ee9086610630565b51161461035a565b50600119810181811161038457606960f81b906001600160f81b03199061041d9086610630565b511614610354565b50815183906001600160401b0381116105c557600754600181811c911680156105bb575b60208210146105a757601f8111610539575b506020601f82116001146104d657819293945f926104cb575b50508160011b915f199060031b1c1916176007555b3360805260a05260c0526040516123549081610656823960805181610d47015260a0518181816106920152611264015260c0518181816106ba0152611c670152f35b015190508480610474565b601f1982169060075f52805f20915f5b81811061052157509583600195969710610509575b505050811b01600755610489565b01515f1960f88460031b161c191690558480806104fb565b9192602060018192868b0151815501940192016104e6565b8181111561045b5760075f52601f820160051c7fa66cc928b5edb82af9bd49922954155ab7b0942694bea4ce44661d9a8736c6886020841061059f575b81601f9101920160051c03905f5b82811061059257505061045b565b5f82820155600101610584565b5f9150610576565b634e487b7160e01b5f52602260045260245ffd5b90607f1690610449565b634e487b7160e01b5f52604160045260245ffd5b63d92e233d60e01b5f5260045ffd5b5f80fd5b6040519060c082016001600160401b038111838210176105c557604052565b6040519190601f01601f191682016001600160401b038111838210176105c557604052565b908151811015610641570160200190565b634e487b7160e01b5f52603260045260245ffdfe60806040526004361015610011575f80fd5b5f3560e01c80627a3a2914611cf3578062fdd58e14611cc457806301ffc9a714611c8a57806309c1ba2e14611c505780630b6067f4146112085780630e89341c146118d8578063110b4cf1146118bd5780631f7fdffa1461178e5780631fe543e31461167b5780632eb2c2d61461147e57806333d608f1146114615780633d9b47aa14611439578063443c227c146113d85780634d8da19c146113bb5780634e1273f4146112a25780635e41813d1461128757806361728f391461124d578063671058001461122357806367f082b014611208578063731133e9146111ca57806379ba50971461115b5780638a94b05f1461103b5780638da5cb5b146110135780638e11150314610ff85780638ea9811714610f2157806395c1469e14610f055780639eccacf614610edd578063a22cb46514610e45578063c42cf53514610dd6578063c9e4a6ef14610d76578063ce606ee014610d32578063d7a0bd8114610d00578063e85a884214610ce5578063e985e9c514610c8e578063ed3f32e214610c73578063f0b1d7a214610c57578063f242432a14610ae4578063f2fde38b14610a6f5763f3917bd2146101c4575f80fd5b346107f55760203660031901126107f55760043560025f5414610a605760025f55805f52600460205260405f206040516101fd81611ef2565b81549081815260018301549260208201938085526002820154926040810193845261027061026861026061026061025860038801549660608701978852600560048a015499608089019a8b5201549a60a088019b8c52611f2e565b885190611f2e565b855190611f2e565b865190611f2e565b15610a515761027e3361201e565b335f9081525f5160206122bf5f395f51905f526020526040902054815111610a42576102a93361201e565b335f9081525f5160206122ff5f395f51905f526020526040902054865111610a33576102d43361201e565b335f9081525f51602061225f5f395f51905f526020526040902054845111610a24576102ff3361201e565b335f9081525f51602061229f5f395f51905f526020526040902054825111610a155761032a3361201e565b335f9081525f5160206122df5f395f51905f526020526040902054835111610a06576103553361201e565b335f9081525f51602061227f5f395f51905f5260205260409020548551116109f7575192331515958694856109a9575b5f8080525f5160206122bf5f395f51905f526020527f07f793f8fd62a1688d9e2ebd2c8b2e8ab72cd080250f71b53bf5b4113f244d5e805488949391906103cd908390611f2e565b90556040519060018252602082015233905f51602061223f5f395f51905f5260403392a4519061095b575b5f8080525f5160206122ff5f395f51905f526020527fc586c88e6f767a75f10d71e7d47c2ce455a9b1b48f44f5fb01af65ba267f7cf980548794939190610440908390611f2e565b90556040519060028252602082015233905f51602061223f5f395f51905f5260403392a4519061090d575b5f8080525f51602061225f5f395f51905f526020527f3de6cf1c405d422d05f6aa747d7f2b48744c557eff38c900b103db8ab0cd6a0e805486949391906104b3908390611f2e565b90556040519060038252602082015233905f51602061223f5f395f51905f5260403392a451906108c1575b5f8080525f51602061229f5f395f51905f526020527f10ec625736cb34e894889f2ce366a12f6f6443e8a39410659c2a3f8d37e71dae8054919291610524908390611f2e565b90556040519060048252602082015233905f51602061223f5f395f51905f5260403392a45190610878575b5f8080525f5160206122df5f395f51905f526020527fc1e3ba2b65d4a6b80b4114c54074cd95d3f109bc983ce944daec3b2d10d1c96a8054919291610595908390611f2e565b90556040519060058252602082015233905f51602061223f5f395f51905f5260403392a45190610820575b5f8080525f51602061227f5f395f51905f526020527f2f8fa02e57cad91373d80a3a5a97ccf2b5f44962f9bd0885a8ce4db617075a8e8054919291610606908390611f2e565b90556040519060068252602082015233905f51602061223f5f395f51905f5260403392a460018060a01b03600354169060405160208101908082106001600160401b0383111761080c5761ffff936020926040525f82526040519163125fa26760e31b84840152511515602483015260248252610684604483611f0d565b60405161069081611ef2565b7f000000000000000000000000000000000000000000000000000000000000000081525f848201917f0000000000000000000000000000000000000000000000000000000000000000835261075460408201956003875263ffffffff6060840162030d4081528160808601916001835260a087019485526040519d8e9b8c9a8b99634d8e1c2f60e11b8b528f60048c01525160248b01525160448a01525116606488015251166084860152511660a48401525160c060c484015260e4830190611d8d565b03925af18015610801575f906107ca575b60209250805f52600a835260405f20336bffffffffffffffffffffffff60a01b825416179055805f52600b83528160405f20556040519133827f15f62b16831d78fd12659b51feb199202fa0d1f5fa4c7caba9e3f854e5d6ac235f80a460015f558152f35b506020823d6020116107f9575b816107e460209383611f0d565b810103126107f55760209151610765565b5f80fd5b3d91506107d7565b6040513d5f823e3d90fd5b634e487b7160e01b5f52604160045260245ffd5b335f9081525f51602061227f5f395f51905f5260205260409020549080821061086957335f9081525f51602061227f5f395f51905f5260205260409020918190039091556105c0565b631e9acf1760e31b5f5260045ffd5b335f9081525f5160206122df5f395f51905f5260205260409020549080821061086957335f9081525f5160206122df5f395f51905f52602052604090209181900390915561054f565b335f9081525f51602061229f5f395f51905f52602052604090205490925082811061086957335f9081525f51602061229f5f395f51905f526020526040902090839003905583916104de565b335f9081525f51602061225f5f395f51905f52602052604090205493509081841061086957335f9081525f51602061225f5f395f51905f52602052604090209382900390935584929061046b565b335f9081525f5160206122ff5f395f51905f52602052604090205494509081851061086957335f9081525f5160206122ff5f395f51905f5260205260409020948290039094558593906103f8565b335f9081525f5160206122bf5f395f51905f52602052604090205495509081861061086957335f9081525f5160206122bf5f395f51905f526020526040902095829003909555869490610385565b631b244ed960e11b5f5260045ffd5b636587e9ad60e11b5f5260045ffd5b6353ddfb1960e01b5f5260045ffd5b632763083760e11b5f5260045ffd5b6331f7f96560e21b5f5260045ffd5b63dbae128d60e01b5f5260045ffd5b631edddbd360e21b5f5260045ffd5b633ee5aeb560e01b5f5260045ffd5b346107f55760203660031901126107f557610a88611d61565b610a9061206c565b6001600160a01b03163381146107f557600280546001600160a01b031916821790556001546001600160a01b03167fed8889f560326eb138920d842192f0eb3dd22b4f139c87a2c57538e05bae12785f80a3005b346107f55760a03660031901126107f557610afd611d61565b610b05611d77565b9060443591606435906084356001600160401b0381116107f557610b2d903690600401611de1565b9390610b388361201e565b6001600160a01b038216943386141580610c34575b610c2557610b61858886610b6896336120d9565b3691611fe8565b93813b610b7157005b5f602094610bb26040519788968795869463f23a6e6160e01b865233600487015260248601526044850152606484015260a0608484015260a4830190611d8d565b03926001600160a01b03165af1908115610801575f91610bf6575b506001600160e01b031916630dc5919f60e01b01610be757005b637620577960e01b5f5260045ffd5b610c18915060203d602011610c1e575b610c108183611f0d565b810190612169565b81610bcd565b503d610c06565b63c19f17a960e01b5f5260045ffd5b505f86815260066020908152604080832033845290915290205460ff1615610b4d565b346107f5575f3660031901126107f55760206040516103ea8152f35b346107f5575f3660031901126107f557602060405160058152f35b346107f55760403660031901126107f557610ca7611d61565b610caf611d77565b9060018060a01b03165f52600660205260405f209060018060a01b03165f52602052602060ff60405f2054166040519015158152f35b346107f5575f3660031901126107f557602060405160048152f35b346107f55760203660031901126107f5576004355f52600a602052602060018060a01b0360405f205416604051908152f35b346107f5575f3660031901126107f5576040517f00000000000000000000000000000000000000000000000000000000000000006001600160a01b03168152602090f35b346107f55760203660031901126107f557600854600435906001600160a01b03163303610dc757806009557feb7cfafebc6f1432f6078dfcbe8faa04654e7c9af8a17c7758d06f3263598c665f80a2005b633b8d9d7560e21b5f5260045ffd5b346107f55760203660031901126107f557610def611d61565b610df761206c565b610e008161201e565b600880546001600160a01b0319166001600160a01b039290921691821790557f5425363a03f182281120f5919107c49c7a1a623acc1cbc6df468b6f0c11fcf8c5f80a2005b346107f55760403660031901126107f557610e5e611d61565b602435908115158092036107f5576001600160a01b031690338214610ece57335f52600660205260405f20825f5260205260405f2060ff1981541660ff83161790556040519081527f17307eab39ab6107e8899845ad3d59bd9653f200f220920489ca2b5937696c3160203392a3005b633cf0df2360e01b5f5260045ffd5b346107f5575f3660031901126107f5576003546040516001600160a01b039091168152602090f35b346107f5575f3660031901126107f55760206040516103e98152f35b346107f55760203660031901126107f557610f3a611d61565b6001546001600160a01b03163381141580610fe3575b610fb957506001600160a01b03168015610faa576020817fd1a6a14209a385a964d036e404cb5cfb71f4000cdb03c9366292430787261be6926bffffffffffffffffffffffff60a01b6003541617600355604051908152a1005b63d92e233d60e01b5f5260045ffd5b60035463061db9c160e01b5f908152336004526024929092526001600160a01b0316604452606490fd5b506003546001600160a01b0316331415610f50565b346107f5575f3660031901126107f557602060405160018152f35b346107f5575f3660031901126107f5576001546040516001600160a01b039091168152602090f35b346107f55761105661104c36611e41565b9491943691611fe8565b916001600160a01b03168061111d575b815f52600560205260405f205f805260205260405f20611087858254611f2e565b90555f816040518481528660208201525f51602061223f5f395f51905f5260403392a45f3b6110b257005b6110f0602093604051958694859463f23a6e6160e01b865233600487015260248601526044850152606484015260a0608484015260a4830190611d8d565b03815f805af1908115610801575f91610bf657506001600160e01b031916630dc5919f60e01b01610be757005b815f52600560205260405f20815f5260205260405f205484811061086957825f52600560205260405f20825f526020528460405f2091039055611066565b346107f5575f3660031901126107f5576002546001600160a01b03811633036107f55760018054336001600160a01b03198083168217909355929091166002556001600160a01b03167f8be0079c531659141344cd1fd0a4f28419497f9722a3daafe3b4186f6b6457e05f80a3005b346107f5576112066111f36111de36611e41565b6111ea9592949561206c565b610b618661201e565b9261120083838333612080565b33612189565b005b346107f5575f3660031901126107f557602060405160038152f35b346107f55760203660031901126107f5576004355f52600b602052602060405f2054604051908152f35b346107f5575f3660031901126107f55760206040517f00000000000000000000000000000000000000000000000000000000000000008152f35b346107f5575f3660031901126107f557602060405160068152f35b346107f55760403660031901126107f5576004356001600160401b0381116107f5576112d2903690600401611db1565b906024356001600160401b0381116107f5576112f2903690600401611db1565b8084036113ac5761130284611f85565b936113106040519586611f0d565b808552601f1961131f82611f85565b013660208701375f5b818110611349576040516020808252819061134590820189611e0e565b0390f35b611354818387611f75565b356001600160a01b03811681036107f55761137b90611374838688611f75565b3590611e8c565b9086518110156113985760019160208260051b8901015201611328565b634e487b7160e01b5f52603260045260245ffd5b6321d1598760e11b5f5260045ffd5b346107f5575f3660031901126107f5576020600954604051908152f35b346107f55760203660031901126107f5576004355f52600460205260c060405f2080549060018101549060028101546003820154906005600484015493015493604051958652602086015260408501526060840152608083015260a0820152f35b346107f5575f3660031901126107f5576008546040516001600160a01b039091168152602090f35b346107f5575f3660031901126107f557602060405162030d408152f35b346107f55760a03660031901126107f557611497611d61565b61149f611d77565b906044356001600160401b0381116107f5576114bf903690600401611db1565b9190926064356001600160401b0381116107f5576114e1903690600401611db1565b93906084356001600160401b0381116107f557611502903690600401611de1565b96909261150e8561201e565b6001600160a01b038616953387141580611658575b610c2557878203611649575f5b82811061161c5750509161154d6115559261155d95943691611f9c565b963691611f9c565b953691611fe8565b92813b61156657005b5f6115a4936115c86020966115b6604051998a988997889663bc197c8160e01b8852336004890152602488015260a0604488015260a4870190611e0e565b85810360031901606487015290611e0e565b83810360031901608485015290611d8d565b03926001600160a01b03165af1908115610801575f916115fd575b506001600160e01b0319166343e6837f60e01b01610be757005b611616915060203d602011610c1e57610c108183611f0d565b816115e3565b8061164361162d6001938688611f75565b35611639838d8a611f75565b35908a86336120d9565b01611530565b63475b74b160e11b5f5260045ffd5b505f87815260066020908152604080832033845290915290205460ff1615611523565b346107f55760403660031901126107f5576004356024356001600160401b0381116107f5576116ae903690600401611db1565b6003549092906001600160a01b03163381900361177857505f818152600a602090815260408083208054600b90935290832080546001600160a01b031984169092559290925590936001600160a01b03909116929015611398576064600954913506105f1461176c5761174660ff60025b166040519061172f602083611f0d565b5f825261173e81878733612080565b858533612189565b7f175e03f33ab753b393830b66dd1e84a8c02a36189e7f9004475aa44cc30309ae5f80a4005b61174660ff600161171f565b63073e64fd60e21b5f523360045260245260445ffd5b346107f55760803660031901126107f5576117a7611d61565b6024356001600160401b0381116107f5576117c6903690600401611db1565b91906044356001600160401b0381116107f5576117e7903690600401611db1565b93906064356001600160401b0381116107f557611808903690600401611de1565b93909261181361206c565b61181c8661201e565b868103611649575f5b81811061189157509161154d6118419261184995943691611f9c565b923691611fe8565b91803b61185257005b6115a45f6115b6956115c86020966040519889978896879563bc197c8160e01b875233600488015287602488015260a0604488015260a4870190611e0e565b806118b76118a26001938587611f75565b356118ae838c89611f75565b35908a33612080565b01611825565b346107f5575f3660031901126107f557602060405160028152f35b346107f55760203660031901126107f557600435604051905f6007548060011c9160018216918215611c46575b602084108314611c32578386528592908115611c135750600114611bb4575b61193092500383611f0d565b815190603c8201918281116119ea576041018092116119ea5761195282611f3b565b916119606040519384611f0d565b80835261196f601f1991611f3b565b013660208401375f91825b8451841015611b1557600384018085116119ea57855181109081611af2575b81611ac2575b81611a92575b81611a6e575b5015611a3357603f81018082116119ea575f845b604082106119fe57505050604081018091116119ea5792600481018091116119ea57935b939261197a565b634e487b7160e01b5f52601160045260245ffd5b611a0a600f821661202e565b90603f838603018481116119ea57611a276001935f1a9188611f56565b5360041c9101906119bf565b611a6890611a62906001600160f81b0319611a4e8789611f56565b51165f1a611a5c8286611f56565b53611f67565b93611f67565b936119e3565b607d60f81b91506001600160f81b031990611a899088611f56565b511614866119ab565b9050600285018086116119ea57601960fa1b906001600160f81b031990611ab99089611f56565b511614906119a5565b9050600185018086116119ea57606960f81b906001600160f81b031990611ae99089611f56565b5116149061199f565b9050607b60f81b6001600160f81b0319611b0c8789611f56565b51161490611999565b50805160041981019081116119ea57611b30602e9183611f56565b53805160031981019081116119ea57611b4b606a9183611f56565b53805160021981019081116119ea57611b6660739183611f56565b53805160011981019081116119ea57611b81606f9183611f56565b5380515f198101919082116119ea57606e611b9f6113459383611f56565b53604051918291602083526020830190611d8d565b509060075f527fa66cc928b5edb82af9bd49922954155ab7b0942694bea4ce44661d9a8736c688905f915b818310611bf757505090602061193092820101611924565b6020919350806001915483858901015201910190918492611bdf565b6020925061193094915060ff191682840152151560051b820101611924565b634e487b7160e01b5f52602260045260245ffd5b92607f1692611905565b346107f5575f3660031901126107f55760206040517f00000000000000000000000000000000000000000000000000000000000000008152f35b346107f55760203660031901126107f5576004356001600160e01b0319811681036107f557611cba602091611eb7565b6040519015158152f35b346107f55760403660031901126107f5576020611ceb611ce2611d61565b60243590611e8c565b604051908152f35b346107f55760e03660031901126107f55760c03660231901126107f5576008546001600160a01b03163303610dc7576004355f52600460205260405f20602435815560443560018201556064356002820155608435600382015560a4356004820155600560c4359101555f80f35b600435906001600160a01b03821682036107f557565b602435906001600160a01b03821682036107f557565b805180835260209291819084018484015e5f828201840152601f01601f1916010190565b9181601f840112156107f5578235916001600160401b0383116107f5576020808501948460051b0101116107f557565b9181601f840112156107f5578235916001600160401b0383116107f557602083818601950101116107f557565b90602080835192838152019201905f5b818110611e2b5750505090565b8251845260209384019390920191600101611e1e565b9060806003198301126107f5576004356001600160a01b03811681036107f557916024359160443591606435906001600160401b0382116107f557611e8891600401611de1565b9091565b90611e968261201e565b5f52600560205260405f209060018060a01b03165f5260205260405f205490565b6001600160e01b0319908116908114611eed57636cdb3d1360e11b8114908115611edf575090565b6301ffc9a760e01b14919050565b505f90565b60c081019081106001600160401b0382111761080c57604052565b90601f801991011681019081106001600160401b0382111761080c57604052565b919082018092116119ea57565b6001600160401b03811161080c57601f01601f191660200190565b908151811015611398570160200190565b5f1981146119ea5760010190565b91908110156113985760051b0190565b6001600160401b03811161080c5760051b60200190565b929190611fa881611f85565b93611fb66040519586611f0d565b602085838152019160051b81019283116107f557905b828210611fd857505050565b8135815260209182019101611fcc565b929192611ff482611f3b565b916120026040519384611f0d565b8294818452818301116107f5578281602093845f960137010152565b6001600160a01b031615610faa57565b600a811061205157605781018091116119ea5760f81b6001600160f81b03191690565b603081018091116119ea5760f81b6001600160f81b03191690565b6001546001600160a01b031633036107f557565b9260405f93925f51602061223f5f395f51905f5292848652600560205282862060018060a01b03831687526020528286206120bc828254611f2e565b9055825194855260208501526001600160a01b03908116951692a4565b936001600160a01b03909116929183612126575b6040905f51602061223f5f395f51905f5292845f526005602052825f2060018060a01b0383165f52602052825f206120bc828254611f2e565b825f52600560205260405f20845f5260205260405f205490828210610869575f8481526005602090815260408083208884529091529020918390039091556120ed565b908160209103126107f557516001600160e01b0319811681036107f55790565b9291813b612199575b5050505050565b5f6020946121e26040519788968795869463f23a6e6160e01b865260018060a01b031660048601528560248601526044850152606484015260a0608484015260a4830190611d8d565b03926001600160a01b03165af1908115610801575f9161221f575b506001600160e01b031916630dc5919f60e01b01610be7575f80808080612192565b612238915060203d602011610c1e57610c108183611f0d565b5f6121fd56fec3d58168c5ae7397731d063d5bbf3d657854427343f4c083240f7aacaa2d0f62a9bc9a3a348c357ba16b37005d7e6b3236198c0e939f4af8c5f19b8deeb8ebc0069400f22b28c6c362558d92f66163cec5671cba50b61abd2eecfcd0eaeac5183eec716f11ba9e820c81ca75eb978ffb45831ef8b7a53e5e422c26008e1ca6d51471eb6eb2c5e789fc3de43f8ce62938c7d1836ec861730447e2ada8fd81017b458b30c2d72bfd2c6317304a4594ecbafe5f729d3111b65fdc3a33bd48e5432d89832631fb3c3307a103ba2c84ab569c64d6182a18893dcd163f0f1c2090733aa26469706673582212206a55cfe9c7e7896869a115fc32edece10b5fedc6c63ec181d41ee6f75455310a64736f6c63430008210033","linkReferences":{}},"methodIdentifiers":{"CALLBACK_GAS_LIMIT()":"33d608f1","GENEROSITY()":"e85a8842","HONESTY()":"8e111503","KINDNESS()":"110b4cf1","LAUGHTER()":"0b6067f4","LOYALTY()":"ed3f32e2","MAGIC()":"5e41813d","PINKIE_PIE()":"95c1469e","REQUEST_CONFIRMATIONS()":"67f082b0","STARLIGHT_GLIMMER()":"f0b1d7a2","acceptOwnership()":"79ba5097","balanceOf(address,uint256)":"00fdd58e","balanceOfBatch(address[],uint256[])":"4e1273f4","burn(address,uint256,uint256,bytes)":"8a94b05f","contractOwner()":"ce606ee0","craft(uint256)":"f3917bd2","dropBoostBps()":"4d8da19c","gameGovernor()":"3d9b47aa","isApprovedForAll(address,address)":"e985e9c5","keyHash()":"61728f39","mint(address,uint256,uint256,bytes)":"731133e9","mintBatch(address,uint256[],uint256[],bytes)":"1f7fdffa","owner()":"8da5cb5b","pendingCraftPonyId(uint256)":"67105800","pendingCraftUser(uint256)":"d7a0bd81","rawFulfillRandomWords(uint256,uint256[])":"1fe543e3","recipes(uint256)":"443c227c","s_vrfCoordinator()":"9eccacf6","safeBatchTransferFrom(address,address,uint256[],uint256[],bytes)":"2eb2c2d6","safeTransferFrom(address,address,uint256,uint256,bytes)":"f242432a","setApprovalForAll(address,bool)":"a22cb465","setCoordinator(address)":"8ea98117","setDropBoostBps(uint256)":"c9e4a6ef","setGovernor(address)":"c42cf535","setRecipe(uint256,(uint256,uint256,uint256,uint256,uint256,uint256))":"007a3a29","subscriptionId()":"09c1ba2e","supportsInterface(bytes4)":"01ffc9a7","transferOwnership(address)":"f2fde38b","uri(uint256)":"0e89341c"},"id":97}