{"abi":[{"type":"function","name":"allTokens","inputs":[{"name":"","type":"uint256","internalType":"uint256"}],"outputs":[{"name":"","type":"address","internalType":"address"}],"stateMutability":"view"},{"type":"function","name":"allTokensLength","inputs":[],"outputs":[{"name":"","type":"uint256","internalType":"uint256"}],"stateMutability":"view"},{"type":"function","name":"createToken","inputs":[{"name":"name","type":"string","internalType":"string"},{"name":"symbol","type":"string","internalType":"string"}],"outputs":[{"name":"token","type":"address","internalType":"address"}],"stateMutability":"nonpayable"},{"type":"function","name":"createToken2","inputs":[{"name":"name","type":"string","internalType":"string"},{"name":"symbol","type":"string","internalType":"string"},{"name":"salt","type":"bytes32","internalType":"bytes32"}],"outputs":[{"name":"token","type":"address","internalType":"address"}],"stateMutability":"nonpayable"},{"type":"function","name":"predictAddress","inputs":[{"name":"name","type":"string","internalType":"string"},{"name":"symbol","type":"string","internalType":"string"},{"name":"salt","type":"bytes32","internalType":"bytes32"}],"outputs":[{"name":"","type":"address","internalType":"address"}],"stateMutability":"view"},{"type":"event","name":"TokenCreated","inputs":[{"name":"token","type":"address","indexed":true,"internalType":"address"},{"name":"salt","type":"bytes32","indexed":true,"internalType":"bytes32"},{"name":"create2","type":"bool","indexed":true,"internalType":"bool"}],"anonymous":false}],"bytecode":{"object":"0x608080604052346015576110f7908161001a8239f35b5f80fdfe6080806040526004361015610012575f80fd5b5f3560e01c9081632080b14a1461026b575080632f2f2d5614610199578063634282af1461012457806390e2f41a146100735763dbb80e4214610053575f80fd5b3461006f575f36600319011261006f5760205f54604051908152f35b5f80fd5b3461006f5761008136610372565b939060405192610c16918285019185831067ffffffffffffffff84111761011057879686956100b6956104ac8839339461040a565b03905ff5908115610105576020916001600160a01b03166100d681610445565b600160405192827f4744e22218eab5827746cc64ded249460da65645f6b44adfd7398b3282c87ed85f80a48152f35b6040513d5f823e3d90fd5b634e487b7160e01b5f52604160045260245ffd5b3461006f57602036600319011261006f576004355f5481101561006f575f54811015610185575f80527f290decd9548b62a8d60345a988386fc84ba6bc95484008f6362f93160ef3e56301546040516001600160a01b039091168152602090f35b634e487b7160e01b5f52603260045260245ffd5b3461006f57604036600319011261006f5760043567ffffffffffffffff811161006f576101ca903690600401610344565b9060243567ffffffffffffffff811161006f576101eb903690600401610344565b9260405193610c16928386019286841067ffffffffffffffff85111761011057869561021d956104ac8839339461040a565b03905ff08015610105576020906001600160a01b031661023c81610445565b604051905f80827f4744e22218eab5827746cc64ded249460da65645f6b44adfd7398b3282c87ed88280a48152f35b3461006f57602080916102c86102f961028336610372565b9792916102ba969196610c169561029c8688018b6103c8565b868a52858a01966104ac88396040519889938785019633938861040a565b03601f1981018752866103c8565b60405194859383850197518091895e840190838201905f8252519283915e01015f815203601f1981018352826103c8565b51902090604051918383019160ff60f81b83523060601b6021850152603584015260558301526055825261032e6075836103c8565b905190206040516001600160a01b039091168152f35b9181601f8401121561006f5782359167ffffffffffffffff831161006f576020838186019501011161006f57565b606060031982011261006f5760043567ffffffffffffffff811161006f578161039d91600401610344565b929092916024359067ffffffffffffffff821161006f576103c091600401610344565b909160443590565b90601f8019910116810190811067ffffffffffffffff82111761011057604052565b908060209392818452848401375f828201840152601f01601f1916010190565b9361042760409492610435949897986060885260608801916103ea565b9185830360208701526103ea565b6001600160a01b03909416910152565b5f546801000000000000000081101561011057600181015f555f54811015610185575f80527f290decd9548b62a8d60345a988386fc84ba6bc95484008f6362f93160ef3e5630180546001600160a01b0319166001600160a01b0390921691909117905556fe60806040523461039e57610c1680380380610019816103a2565b92833981019060608183031261039e5780516001600160401b03811161039e57826100459183016103c7565b60208201519092906001600160401b03811161039e576040916100699184016103c7565b9101516001600160a01b0381169081900361039e5782516001600160401b0381116102a457600354600181811c91168015610394575b602082101461028657601f8111610326575b506020601f82116001146102c357819293945f926102b8575b50508160011b915f199060031b1c1916176003555b81516001600160401b0381116102a457600454600181811c9116801561029a575b602082101461028657601f8111610218575b50602092601f82116001146101b757928192935f926101ac575b50508160011b915f199060031b1c1916176004555b801561019957600580546001600160a01b03198116831790915560405191906001600160a01b03167f8be0079c531659141344cd1fd0a4f28419497f9722a3daafe3b4186f6b6457e05f80a36107fd90816104198239f35b631e4fbdf760e01b5f525f60045260245ffd5b015190505f8061012c565b601f1982169360045f52805f20915f5b86811061020057508360019596106101e8575b505050811b01600455610141565b01515f1960f88460031b161c191690555f80806101da565b919260206001819286850151815501940192016101c7565b818111156101125760045f52601f820160051c7f8a35acfbc15ff81a39ae7d344fd709f28e8600b4aa8c65c6b64bfe7fe36bd19b6020841061027e575b81601f9101920160051c03905f5b828110610271575050610112565b5f82820155600101610263565b5f9150610255565b634e487b7160e01b5f52602260045260245ffd5b90607f1690610100565b634e487b7160e01b5f52604160045260245ffd5b015190505f806100ca565b601f1982169060035f52805f20915f5b81811061030e575095836001959697106102f6575b505050811b016003556100df565b01515f1960f88460031b161c191690555f80806102e8565b9192602060018192868b0151815501940192016102d3565b818111156100b15760035f52601f820160051c7fc2575a0e9e593c00f959f8c92f12db2869c3395a3b0502d05e2516446f71f85b6020841061038c575b81601f9101920160051c03905f5b82811061037f5750506100b1565b5f82820155600101610371565b5f9150610363565b90607f169061009f565b5f80fd5b6040519190601f01601f191682016001600160401b038111838210176102a457604052565b81601f8201121561039e578051906001600160401b0382116102a4576103f6601f8301601f19166020016103a2565b928284526020838301011161039e57815f9260208093018386015e830101529056fe6080806040526004361015610012575f80fd5b5f3560e01c90816306fdde03146105d157508063095ea7b31461054f57806318160ddd1461053257806323b872dd14610452578063313ce5671461043757806340c10f191461038b57806370a0823114610354578063715018a6146102f95780638da5cb5b146102d157806395d89b41146101b6578063a9059cbb14610185578063dd62ed3e146101355763f2fde38b146100ab575f80fd5b34610131576020366003190112610131576100c46106ca565b6100cc6107a0565b6001600160a01b0316801561011e57600580546001600160a01b0319811683179091556001600160a01b03167f8be0079c531659141344cd1fd0a4f28419497f9722a3daafe3b4186f6b6457e05f80a3005b631e4fbdf760e01b5f525f60045260245ffd5b5f80fd5b346101315760403660031901126101315761014e6106ca565b6101566106e0565b6001600160a01b039182165f908152600160209081526040808320949093168252928352819020549051908152f35b34610131576040366003190112610131576101ab6101a16106ca565b60243590336106f6565b602060405160018152f35b34610131575f366003190112610131576040515f6004548060011c906001811680156102c7575b6020831081146102b3578285529081156102975750600114610242575b50819003601f01601f191681019067ffffffffffffffff82118183101761022e5761022a829182604052826106a0565b0390f35b634e487b7160e01b5f52604160045260245ffd5b905060045f527f8a35acfbc15ff81a39ae7d344fd709f28e8600b4aa8c65c6b64bfe7fe36bd19b5f905b828210610281575060209150820101826101fa565b600181602092548385880101520191019061026c565b90506020925060ff191682840152151560051b820101826101fa565b634e487b7160e01b5f52602260045260245ffd5b91607f16916101dd565b34610131575f366003190112610131576005546040516001600160a01b039091168152602090f35b34610131575f366003190112610131576103116107a0565b600580546001600160a01b031981169091555f906001600160a01b03167f8be0079c531659141344cd1fd0a4f28419497f9722a3daafe3b4186f6b6457e08280a3005b34610131576020366003190112610131576001600160a01b036103756106ca565b165f525f602052602060405f2054604051908152f35b34610131576040366003190112610131576103a46106ca565b602435906103b06107a0565b6001600160a01b031690811561042457600254908082018092116104105760207fddf252ad1be2c89b69c2b068fc378daa952ba7f163c4a11628f55a4df523b3ef915f9360025584845283825260408420818154019055604051908152a3005b634e487b7160e01b5f52601160045260245ffd5b63ec442f0560e01b5f525f60045260245ffd5b34610131575f36600319011261013157602060405160128152f35b346101315760603660031901126101315761046b6106ca565b6104736106e0565b6001600160a01b0382165f8181526001602081815260408084203385529091529091205491936044359392909181016104b2575b506101ab93506106f6565b8381106105175784156105045733156104f1576101ab945f52600160205260405f2060018060a01b0333165f526020528360405f2091039055846104a7565b634a1406b160e11b5f525f60045260245ffd5b63e602df0560e01b5f525f60045260245ffd5b8390637dc7a0d960e11b5f523360045260245260445260645ffd5b34610131575f366003190112610131576020600254604051908152f35b34610131576040366003190112610131576105686106ca565b602435903315610504576001600160a01b03169081156104f157335f52600160205260405f20825f526020528060405f20556040519081527f8c5be1e5ebec7d5bd14f71427d1e84f3dd0314c0f7b2291e5b200ac8c7c3b92560203392a3602060405160018152f35b34610131575f366003190112610131575f6003548060011c90600181168015610696575b6020831081146102b35782855290811561029757506001146106415750819003601f01601f191681019067ffffffffffffffff82118183101761022e5761022a829182604052826106a0565b905060035f527fc2575a0e9e593c00f959f8c92f12db2869c3395a3b0502d05e2516446f71f85b5f905b828210610680575060209150820101826101fa565b600181602092548385880101520191019061066b565b91607f16916105f5565b602060409281835280519182918282860152018484015e5f828201840152601f01601f1916010190565b600435906001600160a01b038216820361013157565b602435906001600160a01b038216820361013157565b6001600160a01b031690811561078d576001600160a01b031691821561042457815f525f60205260405f205481811061077457817fddf252ad1be2c89b69c2b068fc378daa952ba7f163c4a11628f55a4df523b3ef92602092855f525f84520360405f2055845f525f825260405f20818154019055604051908152a3565b8263391434e360e21b5f5260045260245260445260645ffd5b634b637e8f60e11b5f525f60045260245ffd5b6005546001600160a01b031633036107b457565b63118cdaa760e01b5f523360045260245ffdfea26469706673582212205cddb44604930b22fb88ba06c1182f752b7dde3d9d5214b35511574a4edea69564736f6c63430008210033a2646970667358221220d998c2f033fafee279855355eca75fdfff8b1ae3c832c2579cc3b3ad8385667564736f6c63430008210033","linkReferences":{}},"methodIdentifiers":{"allTokens(uint256)":"634282af","allTokensLength()":"dbb80e42","createToken(string,string)":"2f2f2d56","createToken2(string,string,bytes32)":"90e2f41a","predictAddress(string,string,bytes32)":"2080b14a"},"id":109}