{"abi":[{"type":"constructor","inputs":[{"name":"token_","type":"address","internalType":"contract IVotes"},{"name":"timelock_","type":"address","internalType":"contract TimelockController"}],"stateMutability":"nonpayable"},{"type":"receive","stateMutability":"payable"},{"type":"function","name":"BALLOT_TYPEHASH","inputs":[],"outputs":[{"name":"","type":"bytes32","internalType":"bytes32"}],"stateMutability":"view"},{"type":"function","name":"CLOCK_MODE","inputs":[],"outputs":[{"name":"","type":"string","internalType":"string"}],"stateMutability":"view"},{"type":"function","name":"COUNTING_MODE","inputs":[],"outputs":[{"name":"","type":"string","internalType":"string"}],"stateMutability":"pure"},{"type":"function","name":"EXTENDED_BALLOT_TYPEHASH","inputs":[],"outputs":[{"name":"","type":"bytes32","internalType":"bytes32"}],"stateMutability":"view"},{"type":"function","name":"cancel","inputs":[{"name":"targets","type":"address[]","internalType":"address[]"},{"name":"values","type":"uint256[]","internalType":"uint256[]"},{"name":"calldatas","type":"bytes[]","internalType":"bytes[]"},{"name":"descriptionHash","type":"bytes32","internalType":"bytes32"}],"outputs":[{"name":"","type":"uint256","internalType":"uint256"}],"stateMutability":"nonpayable"},{"type":"function","name":"castVote","inputs":[{"name":"proposalId","type":"uint256","internalType":"uint256"},{"name":"support","type":"uint8","internalType":"uint8"}],"outputs":[{"name":"","type":"uint256","internalType":"uint256"}],"stateMutability":"nonpayable"},{"type":"function","name":"castVoteBySig","inputs":[{"name":"proposalId","type":"uint256","internalType":"uint256"},{"name":"support","type":"uint8","internalType":"uint8"},{"name":"voter","type":"address","internalType":"address"},{"name":"signature","type":"bytes","internalType":"bytes"}],"outputs":[{"name":"","type":"uint256","internalType":"uint256"}],"stateMutability":"nonpayable"},{"type":"function","name":"castVoteWithReason","inputs":[{"name":"proposalId","type":"uint256","internalType":"uint256"},{"name":"support","type":"uint8","internalType":"uint8"},{"name":"reason","type":"string","internalType":"string"}],"outputs":[{"name":"","type":"uint256","internalType":"uint256"}],"stateMutability":"nonpayable"},{"type":"function","name":"castVoteWithReasonAndParams","inputs":[{"name":"proposalId","type":"uint256","internalType":"uint256"},{"name":"support","type":"uint8","internalType":"uint8"},{"name":"reason","type":"string","internalType":"string"},{"name":"params","type":"bytes","internalType":"bytes"}],"outputs":[{"name":"","type":"uint256","internalType":"uint256"}],"stateMutability":"nonpayable"},{"type":"function","name":"castVoteWithReasonAndParamsBySig","inputs":[{"name":"proposalId","type":"uint256","internalType":"uint256"},{"name":"support","type":"uint8","internalType":"uint8"},{"name":"voter","type":"address","internalType":"address"},{"name":"reason","type":"string","internalType":"string"},{"name":"params","type":"bytes","internalType":"bytes"},{"name":"signature","type":"bytes","internalType":"bytes"}],"outputs":[{"name":"","type":"uint256","internalType":"uint256"}],"stateMutability":"nonpayable"},{"type":"function","name":"clock","inputs":[],"outputs":[{"name":"","type":"uint48","internalType":"uint48"}],"stateMutability":"view"},{"type":"function","name":"eip712Domain","inputs":[],"outputs":[{"name":"fields","type":"bytes1","internalType":"bytes1"},{"name":"name","type":"string","internalType":"string"},{"name":"version","type":"string","internalType":"string"},{"name":"chainId","type":"uint256","internalType":"uint256"},{"name":"verifyingContract","type":"address","internalType":"address"},{"name":"salt","type":"bytes32","internalType":"bytes32"},{"name":"extensions","type":"uint256[]","internalType":"uint256[]"}],"stateMutability":"view"},{"type":"function","name":"execute","inputs":[{"name":"targets","type":"address[]","internalType":"address[]"},{"name":"values","type":"uint256[]","internalType":"uint256[]"},{"name":"calldatas","type":"bytes[]","internalType":"bytes[]"},{"name":"descriptionHash","type":"bytes32","internalType":"bytes32"}],"outputs":[{"name":"","type":"uint256","internalType":"uint256"}],"stateMutability":"payable"},{"type":"function","name":"getVotes","inputs":[{"name":"account","type":"address","internalType":"address"},{"name":"timepoint","type":"uint256","internalType":"uint256"}],"outputs":[{"name":"","type":"uint256","internalType":"uint256"}],"stateMutability":"view"},{"type":"function","name":"getVotesWithParams","inputs":[{"name":"account","type":"address","internalType":"address"},{"name":"timepoint","type":"uint256","internalType":"uint256"},{"name":"params","type":"bytes","internalType":"bytes"}],"outputs":[{"name":"","type":"uint256","internalType":"uint256"}],"stateMutability":"view"},{"type":"function","name":"hasVoted","inputs":[{"name":"proposalId","type":"uint256","internalType":"uint256"},{"name":"account","type":"address","internalType":"address"}],"outputs":[{"name":"","type":"bool","internalType":"bool"}],"stateMutability":"view"},{"type":"function","name":"hashProposal","inputs":[{"name":"targets","type":"address[]","internalType":"address[]"},{"name":"values","type":"uint256[]","internalType":"uint256[]"},{"name":"calldatas","type":"bytes[]","internalType":"bytes[]"},{"name":"descriptionHash","type":"bytes32","internalType":"bytes32"}],"outputs":[{"name":"","type":"uint256","internalType":"uint256"}],"stateMutability":"pure"},{"type":"function","name":"name","inputs":[],"outputs":[{"name":"","type":"string","internalType":"string"}],"stateMutability":"view"},{"type":"function","name":"nonces","inputs":[{"name":"owner","type":"address","internalType":"address"}],"outputs":[{"name":"","type":"uint256","internalType":"uint256"}],"stateMutability":"view"},{"type":"function","name":"onERC1155BatchReceived","inputs":[{"name":"","type":"address","internalType":"address"},{"name":"","type":"address","internalType":"address"},{"name":"","type":"uint256[]","internalType":"uint256[]"},{"name":"","type":"uint256[]","internalType":"uint256[]"},{"name":"","type":"bytes","internalType":"bytes"}],"outputs":[{"name":"","type":"bytes4","internalType":"bytes4"}],"stateMutability":"nonpayable"},{"type":"function","name":"onERC1155Received","inputs":[{"name":"","type":"address","internalType":"address"},{"name":"","type":"address","internalType":"address"},{"name":"","type":"uint256","internalType":"uint256"},{"name":"","type":"uint256","internalType":"uint256"},{"name":"","type":"bytes","internalType":"bytes"}],"outputs":[{"name":"","type":"bytes4","internalType":"bytes4"}],"stateMutability":"nonpayable"},{"type":"function","name":"onERC721Received","inputs":[{"name":"","type":"address","internalType":"address"},{"name":"","type":"address","internalType":"address"},{"name":"","type":"uint256","internalType":"uint256"},{"name":"","type":"bytes","internalType":"bytes"}],"outputs":[{"name":"","type":"bytes4","internalType":"bytes4"}],"stateMutability":"nonpayable"},{"type":"function","name":"proposalDeadline","inputs":[{"name":"proposalId","type":"uint256","internalType":"uint256"}],"outputs":[{"name":"","type":"uint256","internalType":"uint256"}],"stateMutability":"view"},{"type":"function","name":"proposalEta","inputs":[{"name":"proposalId","type":"uint256","internalType":"uint256"}],"outputs":[{"name":"","type":"uint256","internalType":"uint256"}],"stateMutability":"view"},{"type":"function","name":"proposalNeedsQueuing","inputs":[{"name":"proposalId","type":"uint256","internalType":"uint256"}],"outputs":[{"name":"","type":"bool","internalType":"bool"}],"stateMutability":"view"},{"type":"function","name":"proposalProposer","inputs":[{"name":"proposalId","type":"uint256","internalType":"uint256"}],"outputs":[{"name":"","type":"address","internalType":"address"}],"stateMutability":"view"},{"type":"function","name":"proposalSnapshot","inputs":[{"name":"proposalId","type":"uint256","internalType":"uint256"}],"outputs":[{"name":"","type":"uint256","internalType":"uint256"}],"stateMutability":"view"},{"type":"function","name":"proposalThreshold","inputs":[],"outputs":[{"name":"","type":"uint256","internalType":"uint256"}],"stateMutability":"view"},{"type":"function","name":"proposalVotes","inputs":[{"name":"proposalId","type":"uint256","internalType":"uint256"}],"outputs":[{"name":"againstVotes","type":"uint256","internalType":"uint256"},{"name":"forVotes","type":"uint256","internalType":"uint256"},{"name":"abstainVotes","type":"uint256","internalType":"uint256"}],"stateMutability":"view"},{"type":"function","name":"propose","inputs":[{"name":"targets","type":"address[]","internalType":"address[]"},{"name":"values","type":"uint256[]","internalType":"uint256[]"},{"name":"calldatas","type":"bytes[]","internalType":"bytes[]"},{"name":"description","type":"string","internalType":"string"}],"outputs":[{"name":"","type":"uint256","internalType":"uint256"}],"stateMutability":"nonpayable"},{"type":"function","name":"queue","inputs":[{"name":"targets","type":"address[]","internalType":"address[]"},{"name":"values","type":"uint256[]","internalType":"uint256[]"},{"name":"calldatas","type":"bytes[]","internalType":"bytes[]"},{"name":"descriptionHash","type":"bytes32","internalType":"bytes32"}],"outputs":[{"name":"","type":"uint256","internalType":"uint256"}],"stateMutability":"nonpayable"},{"type":"function","name":"quorum","inputs":[{"name":"blockNumber","type":"uint256","internalType":"uint256"}],"outputs":[{"name":"","type":"uint256","internalType":"uint256"}],"stateMutability":"view"},{"type":"function","name":"quorumDenominator","inputs":[],"outputs":[{"name":"","type":"uint256","internalType":"uint256"}],"stateMutability":"view"},{"type":"function","name":"quorumNumerator","inputs":[{"name":"timepoint","type":"uint256","internalType":"uint256"}],"outputs":[{"name":"","type":"uint256","internalType":"uint256"}],"stateMutability":"view"},{"type":"function","name":"quorumNumerator","inputs":[],"outputs":[{"name":"","type":"uint256","internalType":"uint256"}],"stateMutability":"view"},{"type":"function","name":"relay","inputs":[{"name":"target","type":"address","internalType":"address"},{"name":"value","type":"uint256","internalType":"uint256"},{"name":"data","type":"bytes","internalType":"bytes"}],"outputs":[],"stateMutability":"payable"},{"type":"function","name":"setProposalThreshold","inputs":[{"name":"newProposalThreshold","type":"uint256","internalType":"uint256"}],"outputs":[],"stateMutability":"nonpayable"},{"type":"function","name":"setVotingDelay","inputs":[{"name":"newVotingDelay","type":"uint48","internalType":"uint48"}],"outputs":[],"stateMutability":"nonpayable"},{"type":"function","name":"setVotingPeriod","inputs":[{"name":"newVotingPeriod","type":"uint32","internalType":"uint32"}],"outputs":[],"stateMutability":"nonpayable"},{"type":"function","name":"state","inputs":[{"name":"proposalId","type":"uint256","internalType":"uint256"}],"outputs":[{"name":"","type":"uint8","internalType":"enum IGovernor.ProposalState"}],"stateMutability":"view"},{"type":"function","name":"supportsInterface","inputs":[{"name":"interfaceId","type":"bytes4","internalType":"bytes4"}],"outputs":[{"name":"","type":"bool","internalType":"bool"}],"stateMutability":"view"},{"type":"function","name":"timelock","inputs":[],"outputs":[{"name":"","type":"address","internalType":"address"}],"stateMutability":"view"},{"type":"function","name":"token","inputs":[],"outputs":[{"name":"","type":"address","internalType":"contract IERC5805"}],"stateMutability":"view"},{"type":"function","name":"updateQuorumNumerator","inputs":[{"name":"newQuorumNumerator","type":"uint256","internalType":"uint256"}],"outputs":[],"stateMutability":"nonpayable"},{"type":"function","name":"updateTimelock","inputs":[{"name":"newTimelock","type":"address","internalType":"contract TimelockController"}],"outputs":[],"stateMutability":"nonpayable"},{"type":"function","name":"version","inputs":[],"outputs":[{"name":"","type":"string","internalType":"string"}],"stateMutability":"view"},{"type":"function","name":"votingDelay","inputs":[],"outputs":[{"name":"","type":"uint256","internalType":"uint256"}],"stateMutability":"pure"},{"type":"function","name":"votingPeriod","inputs":[],"outputs":[{"name":"","type":"uint256","internalType":"uint256"}],"stateMutability":"pure"},{"type":"event","name":"EIP712DomainChanged","inputs":[],"anonymous":false},{"type":"event","name":"ProposalCanceled","inputs":[{"name":"proposalId","type":"uint256","indexed":false,"internalType":"uint256"}],"anonymous":false},{"type":"event","name":"ProposalCreated","inputs":[{"name":"proposalId","type":"uint256","indexed":false,"internalType":"uint256"},{"name":"proposer","type":"address","indexed":false,"internalType":"address"},{"name":"targets","type":"address[]","indexed":false,"internalType":"address[]"},{"name":"values","type":"uint256[]","indexed":false,"internalType":"uint256[]"},{"name":"signatures","type":"string[]","indexed":false,"internalType":"string[]"},{"name":"calldatas","type":"bytes[]","indexed":false,"internalType":"bytes[]"},{"name":"voteStart","type":"uint256","indexed":false,"internalType":"uint256"},{"name":"voteEnd","type":"uint256","indexed":false,"internalType":"uint256"},{"name":"description","type":"string","indexed":false,"internalType":"string"}],"anonymous":false},{"type":"event","name":"ProposalExecuted","inputs":[{"name":"proposalId","type":"uint256","indexed":false,"internalType":"uint256"}],"anonymous":false},{"type":"event","name":"ProposalQueued","inputs":[{"name":"proposalId","type":"uint256","indexed":false,"internalType":"uint256"},{"name":"etaSeconds","type":"uint256","indexed":false,"internalType":"uint256"}],"anonymous":false},{"type":"event","name":"ProposalThresholdSet","inputs":[{"name":"oldProposalThreshold","type":"uint256","indexed":false,"internalType":"uint256"},{"name":"newProposalThreshold","type":"uint256","indexed":false,"internalType":"uint256"}],"anonymous":false},{"type":"event","name":"QuorumNumeratorUpdated","inputs":[{"name":"oldQuorumNumerator","type":"uint256","indexed":false,"internalType":"uint256"},{"name":"newQuorumNumerator","type":"uint256","indexed":false,"internalType":"uint256"}],"anonymous":false},{"type":"event","name":"TimelockChange","inputs":[{"name":"oldTimelock","type":"address","indexed":false,"internalType":"address"},{"name":"newTimelock","type":"address","indexed":false,"internalType":"address"}],"anonymous":false},{"type":"event","name":"VoteCast","inputs":[{"name":"voter","type":"address","indexed":true,"internalType":"address"},{"name":"proposalId","type":"uint256","indexed":false,"internalType":"uint256"},{"name":"support","type":"uint8","indexed":false,"internalType":"uint8"},{"name":"weight","type":"uint256","indexed":false,"internalType":"uint256"},{"name":"reason","type":"string","indexed":false,"internalType":"string"}],"anonymous":false},{"type":"event","name":"VoteCastWithParams","inputs":[{"name":"voter","type":"address","indexed":true,"internalType":"address"},{"name":"proposalId","type":"uint256","indexed":false,"internalType":"uint256"},{"name":"support","type":"uint8","indexed":false,"internalType":"uint8"},{"name":"weight","type":"uint256","indexed":false,"internalType":"uint256"},{"name":"reason","type":"string","indexed":false,"internalType":"string"},{"name":"params","type":"bytes","indexed":false,"internalType":"bytes"}],"anonymous":false},{"type":"event","name":"VotingDelaySet","inputs":[{"name":"oldVotingDelay","type":"uint256","indexed":false,"internalType":"uint256"},{"name":"newVotingDelay","type":"uint256","indexed":false,"internalType":"uint256"}],"anonymous":false},{"type":"event","name":"VotingPeriodSet","inputs":[{"name":"oldVotingPeriod","type":"uint256","indexed":false,"internalType":"uint256"},{"name":"newVotingPeriod","type":"uint256","indexed":false,"internalType":"uint256"}],"anonymous":false},{"type":"error","name":"CheckpointUnorderedInsertion","inputs":[]},{"type":"error","name":"FailedInnerCall","inputs":[]},{"type":"error","name":"GovernorAlreadyCastVote","inputs":[{"name":"voter","type":"address","internalType":"address"}]},{"type":"error","name":"GovernorAlreadyQueuedProposal","inputs":[{"name":"proposalId","type":"uint256","internalType":"uint256"}]},{"type":"error","name":"GovernorDisabledDeposit","inputs":[]},{"type":"error","name":"GovernorInsufficientProposerVotes","inputs":[{"name":"proposer","type":"address","internalType":"address"},{"name":"votes","type":"uint256","internalType":"uint256"},{"name":"threshold","type":"uint256","internalType":"uint256"}]},{"type":"error","name":"GovernorInvalidProposalLength","inputs":[{"name":"targets","type":"uint256","internalType":"uint256"},{"name":"calldatas","type":"uint256","internalType":"uint256"},{"name":"values","type":"uint256","internalType":"uint256"}]},{"type":"error","name":"GovernorInvalidQuorumFraction","inputs":[{"name":"quorumNumerator","type":"uint256","internalType":"uint256"},{"name":"quorumDenominator","type":"uint256","internalType":"uint256"}]},{"type":"error","name":"GovernorInvalidSignature","inputs":[{"name":"voter","type":"address","internalType":"address"}]},{"type":"error","name":"GovernorInvalidVoteType","inputs":[]},{"type":"error","name":"GovernorInvalidVotingPeriod","inputs":[{"name":"votingPeriod","type":"uint256","internalType":"uint256"}]},{"type":"error","name":"GovernorNonexistentProposal","inputs":[{"name":"proposalId","type":"uint256","internalType":"uint256"}]},{"type":"error","name":"GovernorNotQueuedProposal","inputs":[{"name":"proposalId","type":"uint256","internalType":"uint256"}]},{"type":"error","name":"GovernorOnlyExecutor","inputs":[{"name":"account","type":"address","internalType":"address"}]},{"type":"error","name":"GovernorOnlyProposer","inputs":[{"name":"account","type":"address","internalType":"address"}]},{"type":"error","name":"GovernorQueueNotImplemented","inputs":[]},{"type":"error","name":"GovernorRestrictedProposer","inputs":[{"name":"proposer","type":"address","internalType":"address"}]},{"type":"error","name":"GovernorUnexpectedProposalState","inputs":[{"name":"proposalId","type":"uint256","internalType":"uint256"},{"name":"current","type":"uint8","internalType":"enum IGovernor.ProposalState"},{"name":"expectedStates","type":"bytes32","internalType":"bytes32"}]},{"type":"error","name":"InvalidAccountNonce","inputs":[{"name":"account","type":"address","internalType":"address"},{"name":"currentNonce","type":"uint256","internalType":"uint256"}]},{"type":"error","name":"InvalidShortString","inputs":[]},{"type":"error","name":"QueueEmpty","inputs":[]},{"type":"error","name":"QueueFull","inputs":[]},{"type":"error","name":"SafeCastOverflowedUintDowncast","inputs":[{"name":"bits","type":"uint8","internalType":"uint8"},{"name":"value","type":"uint256","internalType":"uint256"}]},{"type":"error","name":"StringTooLong","inputs":[{"name":"str","type":"string","internalType":"string"}]}],"bytecode":{"object":"0x610180604052346100b55761001b610015610117565b90610183565b604051613a599081610ad3823960805181613206015260a051816132bd015260c051816131d0015260e051816132550152610100518161327b01526101205181611384015261014051816113b001526101605181818161160801528181611a9201528181611bc801528181611c6701528181611dea01528181612178015281816122320152818161230501528181612a1901526139010152f35b5f80fd5b634e487b7160e01b5f52604160045260245ffd5b601f909101601f19168101906001600160401b038211908210176100f057604052565b6100b9565b604051906101046040836100cd565b565b6001600160a01b038116036100b557565b61452c9060408238039283825194859261013182856100cd565b8339810103126100b557602082519261014984610106565b01519161015583610106565b9190565b604051906101686040836100cd565b600a8252565b6040519061017d6040836100cd565b60018252565b906101049161024b610193610159565b602081016926bca3b7bb32b93737b960b11b81526101af61016e565b906020820190603160f81b82526101c5846105e6565b610120526101d2836106d6565b6101405283519020918260e05251902080610100524660a0526040519060208201927f8b73c3c69bb8fe3d512ecc4cf759cc79239f7b179b0ffacaa9a75d522b39400f8452604083015260608201524660808201523060a082015260a0815261023c60c0826100cd565b5190206080523060c052610313565b6102536104f8565b61025b610545565b61026361059d565b6001600160a01b03166101605261027861044b565b6103f8565b90600182811c921680156102ab575b602083101461029757565b634e487b7160e01b5f52602260045260245ffd5b91607f169161028c565b919091601f83116102c6575b505050565b8183116102d257505050565b5f5260205f206020601f830160051c921061030b575b81601f9101920160051c03905f5b828110156102c1575f828201556001016102f6565b5f91506102e8565b80519091906001600160401b0381116100f05761033c8161033560035461027d565b60036102b5565b602092601f821160011461037c5761036c929382915f92610371575b50508160011b915f199060031b1c19161790565b600355565b015190505f80610358565b60035f52601f198216937fc2575a0e9e593c00f959f8c92f12db2869c3395a3b0502d05e2516446f71f85b915f5b8681106103e057508360019596106103c8575b505050811b01600355565b01515f1960f88460031b161c191690555f80806103bd565b919260206001819286850151815501940192016103aa565b600b54604080516001600160a01b03808416825290931660208401819052927f08f74ea46ef7894f65eabfb5e6e695de773a000b47c529ab559178069b2264019190a16001600160a01b03191617600b55565b600a54806104ab57505f5b6001600160d01b03166104676107c8565b7f0553476bf02ef2726e8ce5ced78d63e26e602e4a2257b1f559418e24b46339979160049161049790839061095f565b5050604080519182526020820192909252a1565b805f198101116104e457600a5f527fc65a7bb8d6351c1cf70c95a316cc6a92839c986682d98bc35f958f4883f9d2a7015460301c610456565b634e487b7160e01b5f52601160045260245ffd5b620151806008547fc565b045403dc03c2eea82b81a0465edad9e2e7fc4d97e11421c209da93d7a936040805165ffffffffffff84168152846020820152a165ffffffffffff191617600855565b68093a800000000000006008547f7e3f7f0708a84de9203036abaa450dccc85ad5ff52f78c170f3edb55cf5e88286040805163ffffffff8460301c16815262093a806020820152a163ffffffff60301b191617600855565b60075460408051918252670de0b6b3a764000060208301527fccb45da8d5717e6c4544694297c4ba5cf151d455c9bb0ed4fc7a38411bc0546191a1670de0b6b3a7640000600755565b908151602081105f146106015750906105fe90610849565b90565b6001600160401b0381116100f0576106238161061d5f5461027d565b5f6102b5565b602092601f821160011461065957610652929382915f926103715750508160011b915f199060031b1c19161790565b5f5560ff90565b5f8052601f198216937f290decd9548b62a8d60345a988386fc84ba6bc95484008f6362f93160ef3e563915f5b8681106106be57508360019596106106a6575b505050811b015f5560ff90565b01515f1960f88460031b161c191690555f8080610699565b91926020600181928685015181550194019201610686565b908151602081105f146106ee5750906105fe90610849565b6001600160401b0381116100f0576107128161070b60015461027d565b60016102b5565b602092601f821160011461074957610741929382915f926103715750508160011b915f199060031b1c19161790565b60015560ff90565b60015f52601f198216937fb10e2d527612073b26eecdfd717e6a320cf44b4afac2b0732d9fcbe2b7fa0cf6915f5b8681106107b05750836001959610610798575b505050811b0160015560ff90565b01515f1960f88460031b161c191690555f808061078a565b91926020600181928685015181550194019201610777565b610160516040516324776b7d60e21b815290602090829060049082906001600160a01b03165afa5f9181610806575b506105fe57506105fe43610aa3565b9091506020813d602011610841575b81610822602093836100cd565b810103126100b5575165ffffffffffff811681036100b557905f6107f7565b3d9150610815565b601f815111610874576020815191015160208210610865571790565b5f198260200360031b1b161790565b604460209160405192839163305a27a960e01b83528160048401528051918291826024860152018484015e5f828201840152601f01601f19168101030190fd5b5f198101919082116104e457565b908154680100000000000000008110156100f05760018101808455811015610915575f9283526020928390208251929093015160301b65ffffffffffff191665ffffffffffff9290921691909117910155565b634e487b7160e01b5f52603260045260245ffd5b604080519192919081016001600160401b038111828210176100f057604052915465ffffffffffff8116835260301c6020830152565b600a54919291908115610a7a57816109b16109ac61098365ffffffffffff956108b4565b600a5f527fc65a7bb8d6351c1cf70c95a316cc6a92839c986682d98bc35f958f4883f9d2a80190565b610929565b906109c2825165ffffffffffff1690565b8484169485911611610a6b5785602093610155956109f46109e9865165ffffffffffff1690565b65ffffffffffff1690565b03610a305750610a09610983610a22936108b4565b9065ffffffffffff82549181199060301b169116179055565b01516001600160d01b031690565b9050610a669150610a50610a426100f5565b65ffffffffffff9092168252565b6001600160d01b038716818501525b600a6108c2565b610a22565b632520601d60e01b5f5260045ffd5b610a9e9150610a8a610a426100f5565b6001600160d01b0384166020820152610a5f565b5f9190565b65ffffffffffff8111610abb5765ffffffffffff1690565b6306dfcc6560e41b5f52603060045260245260445ffdfe60806040526004361015610022575b3615610018575f80fd5b6100206124f0565b005b5f3560e01c806301ffc9a71461032157806302a251a31461031c57806306f3f9e61461031757806306fdde0314610312578063143489d01461030d578063150b7a0214610308578063160cbed7146103035780632656227d146102fe5780632d63f693146102f95780632fe3e261146102f45780633932abb1146102ef5780633e4f49e6146102ea57806343859632146102e5578063452115d6146102e05780634bf5d7e9146102db578063544ffc9c146102d657806354fd4d50146102d157806356781388146102cc5780635b8d0e0d146102c75780635f398a14146102c257806360c4247f146102bd57806379051887146102b85780637b3c71d3146102b35780637d5e81e2146102ae5780637ecebe00146102a957806384b0196e146102a45780638ff262e31461029f57806391ddadf41461029a57806397c3d334146102955780639a802a6d14610290578063a7713a701461028b578063a890c91014610286578063a9a9529414610281578063ab58fb8e1461027c578063b58131b014610277578063bc197c8114610272578063c01f9e371461026d578063c28bc2fa14610268578063c59057e414610263578063d33219b41461025e578063dd4e2ba514610259578063deaaa7cc14610254578063e540d01d1461024f578063eb9019d41461024a578063ece40cc114610245578063f23a6e6114610240578063f8ce560a1461023b5763fc0c546a0361000e57611c52565b611b97565b611b2a565b611ad5565b611a30565b61198a565b611950565b6118f1565b6118c9565b6118ad565b611842565b611824565b611777565b61175d565b61172a565b61170e565b611696565b61166b565b611596565b61157b565b611551565b61143c565b61136c565b6112fe565b611250565b6111fb565b611189565b61115b565b6110e6565b611040565b610fd2565b610f7f565b610f3e565b610f0f565b610db4565b610d5f565b610d30565b610ce4565b610caa565b610c75565b610b15565b6108ce565b61068a565b610590565b6104b6565b6103b8565b61039d565b3461038f57602036600319011261038f5760043563ffffffff60e01b811680910361038f576020906332a2ad4360e11b811490811561037e575b811561036d575b506040519015158152f35b6301ffc9a760e01b1490505f610362565b630271189760e51b8114915061035b565b5f80fd5b5f91031261038f57565b3461038f575f36600319011261038f576020604051600a8152f35b3461038f57602036600319011261038f576004356103d4612506565b60648111610467576001600160d01b036103ec612ed2565b16906103f661221d565b916001600160d01b03821161044f577f0553476bf02ef2726e8ce5ced78d63e26e602e4a2257b1f559418e24b46339979261043b906001600160d01b038416906137a6565b5050604080519182526020820192909252a1005b506306dfcc6560e41b5f5260d060045260245260445ffd5b63243e544560e01b5f52600452606460245260445ffd5b805180835260209291819084018484015e5f828201840152601f01601f1916010190565b9060206104b392818152019061047e565b90565b3461038f575f36600319011261038f576040515f6003546104d681611c96565b808452906001811690811561056c575060011461050e575b61050a836104fe818503826105e7565b604051918291826104a2565b0390f35b60035f9081527fc2575a0e9e593c00f959f8c92f12db2869c3395a3b0502d05e2516446f71f85b939250905b808210610552575090915081016020016104fe6104ee565b91926001816020925483858801015201910190929161053a565b60ff191660208086019190915291151560051b840190910191506104fe90506104ee565b3461038f57602036600319011261038f576004355f526004602052602060018060a01b0360405f205416604051908152f35b6001600160a01b0381160361038f57565b634e487b7160e01b5f52604160045260245ffd5b90601f801991011681019081106001600160401b0382111761060857604052565b6105d3565b6040519061061c6040836105e7565b565b6001600160401b03811161060857601f01601f191660200190565b9291926106458261061e565b9161065360405193846105e7565b82948184528183011161038f578281602093845f960137010152565b9080601f8301121561038f578160206104b393359101610639565b3461038f57608036600319011261038f576106a66004356105c2565b6106b16024356105c2565b6064356001600160401b03811161038f576106d090369060040161066f565b50600b54306001600160a01b03909116036106f757604051630a85bd0160e11b8152602090f35b637485328f60e11b5f5260045ffd5b6001600160401b0381116106085760051b60200190565b9080601f8301121561038f57813561073481610706565b9261074260405194856105e7565b81845260208085019260051b82010192831161038f57602001905b82821061076a5750505090565b602080918335610779816105c2565b81520191019061075d565b9080601f8301121561038f57813561079b81610706565b926107a960405194856105e7565b81845260208085019260051b82010192831161038f57602001905b8282106107d15750505090565b81358152602091820191016107c4565b9080601f8301121561038f5781356107f881610706565b9261080660405194856105e7565b81845260208085019260051b8201019183831161038f5760208201905b83821061083257505050505090565b81356001600160401b03811161038f576020916108548784809488010161066f565b815201910190610823565b608060031982011261038f576004356001600160401b03811161038f57816108899160040161071d565b916024356001600160401b03811161038f57826108a891600401610784565b91604435906001600160401b03821161038f576108c7916004016107e1565b9060643590565b3461038f576108dc3661085f565b90926108ea82858584612489565b936108f4856125ae565b50600b54610912906001600160a01b03165b6001600160a01b031690565b936040519363793d064960e11b8552602085600481895afa948515610ac0575f95610af4575b503060601b6bffffffffffffffffffffffff191618946020604051809263b1c5f42760e01b825281806109718b89898c60048601612fa3565b03915afa908115610ac0575f91610ac5575b50610996875f52600c60205260405f2090565b55600b546109ac906001600160a01b0316610906565b90813b1561038f575f80946109d887604051998a97889687956308f2a0bb60e41b875260048701612fe8565b03925af1908115610ac0576109fc926109f792610aa6575b5042612b48565b612aef565b9065ffffffffffff821615610a97577f9a2e42fd6722813d69113e7d0079d3d940171428df7373df9c7f7617cfda2892610a8483610a6561050a956001610a4b875f52600460205260405f2090565b019065ffffffffffff1665ffffffffffff19825416179055565b6040805185815265ffffffffffff909216602083015290918291820190565b0390a16040519081529081906020820190565b634844252360e11b5f5260045ffd5b80610ab45f610aba936105e7565b80610393565b5f6109f0565b611d7c565b610ae7915060203d602011610aed575b610adf81836105e7565b8101906122b0565b5f610983565b503d610ad5565b610b0e91955060203d602011610aed57610adf81836105e7565b935f610938565b610b1e3661085f565b91610b2b83838387612489565b936020610b3960308761266e565b50610b62610b4f875f52600460205260405f2090565b805460ff60f01b1916600160f01b179055565b600b54306001600160a01b0390911603610c0d575b5091849391610b899361050a96613035565b600b543090610ba0906001600160a01b0316610906565b141580610be8575b610bdf575b6040518181527f712ae1383f79ac853f8d882153778e0260ef8f03b504e2866e0593e04d2b291f908060208101610a84565b5f600555610bad565b50610c08610c046005546001600160801b0381169060801c1490565b1590565b610ba8565b949091935f5b8351811015610c675760019030610c3d610906610c308489611d63565b516001600160a01b031690565b14610c49575b01610c13565b610c62610c568288611d63565b518981519101206126ac565b610c43565b50909450929061050a610b77565b3461038f57602036600319011261038f576004355f526004602052602065ffffffffffff60405f205460a01c16604051908152f35b3461038f575f36600319011261038f5760206040517f3e83946653575f9a39005e1545185629e92736b7528ab20ca3816f315424a8118152f35b3461038f575f36600319011261038f57602060405160058152f35b634e487b7160e01b5f52602160045260245ffd5b60081115610d1d57565b610cff565b6008811015610d1d57602452565b3461038f57602036600319011261038f57610d4c600435612723565b6040516008821015610d1d576020918152f35b3461038f57604036600319011261038f57602060ff610da8602435600435610d86826105c2565b5f5260098452600360405f20019060018060a01b03165f5260205260405f2090565b54166040519015158152f35b3461038f57610dc23661085f565b91610dcf83838387612489565b610dd8816125ee565b505f908152600460205260409020546001600160a01b03163303610efc57610dff93612489565b610e0a603b8261266e565b50610e35610e20825f52600460205260405f2090565b80546001600160f81b0316600160f81b179055565b6040518181527f789cf55be980739dad1d0699b93b58e806b51c9d96619bfa8fe0a28abaa7b30c90602090a1610e73815f52600c60205260405f2090565b549081610e86575b604051908152602090f35b600b54610e9b906001600160a01b0316610906565b803b1561038f5760405163c4d252f560e01b815260048101939093525f908390602490829084905af1918215610ac05761050a92610ee8575b505f818152600c6020526040812055610e7b565b80610ab45f610ef6936105e7565b5f610ed4565b63233d98e360e01b5f523360045260245ffd5b3461038f575f36600319011261038f5761050a610f2a611dd6565b60405191829160208352602083019061047e565b3461038f57602036600319011261038f576004355f526009602052606060405f20805490600260018201549101549060405192835260208301526040820152f35b3461038f575f36600319011261038f5761050a604051610fa06040826105e7565b60018152603160f81b602082015260405191829160208352602083019061047e565b6024359060ff8216820361038f57565b3461038f57604036600319011261038f57602061100b600435610ff3610fc2565b6040519161100185846105e7565b5f83523390612830565b604051908152f35b9181601f8401121561038f578235916001600160401b03831161038f576020838186019501011161038f57565b3461038f5760c036600319011261038f5760043561105c610fc2565b906044359061106a826105c2565b6064356001600160401b03811161038f57611089903690600401611013565b6084356001600160401b03811161038f576110a890369060040161066f565b9160a435946001600160401b03861161038f5761050a966110d06110d697369060040161066f565b95611ea5565b6040519081529081906020820190565b3461038f57608036600319011261038f57600435611102610fc2565b906044356001600160401b03811161038f57611122903690600401611013565b9190926064356001600160401b03811161038f57610e7b9461114b61115392369060040161066f565b943691610639565b9133906129b0565b3461038f57602036600319011261038f57602061100b600435611fc8565b65ffffffffffff81160361038f57565b3461038f57602036600319011261038f576004356111a681611179565b6111ae612506565b6008547fc565b045403dc03c2eea82b81a0465edad9e2e7fc4d97e11421c209da93d7a93604065ffffffffffff81519481851686521693846020820152a165ffffffffffff191617600855005b3461038f57606036600319011261038f57600435611217610fc2565b90604435906001600160401b03821161038f5760209261124861124161100b943690600401611013565b3691610639565b913390612830565b3461038f57608036600319011261038f576004356001600160401b03811161038f5761128090369060040161071d565b6024356001600160401b03811161038f5761129f903690600401610784565b906044356001600160401b03811161038f576112bf9036906004016107e1565b90606435916001600160401b03831161038f573660238401121561038f5761050a936112f86110d6943690602481600401359101610639565b92612108565b3461038f57602036600319011261038f5760043561131b816105c2565b60018060a01b03165f526002602052602060405f2054604051908152f35b90602080835192838152019201905f5b8181106113565750505090565b8251845260209384019390920191600101611349565b3461038f575f36600319011261038f5761140e6113a87f0000000000000000000000000000000000000000000000000000000000000000613665565b61050a6113d47f00000000000000000000000000000000000000000000000000000000000000006136c4565b61141c604051916113e66020846105e7565b5f808452366020850137604051958695600f60f81b875260e0602088015260e087019061047e565b90858203604087015261047e565b904660608501523060808501525f60a085015283820360c0850152611339565b3461038f57608036600319011261038f57600435611458610fc2565b9060443591611466836105c2565b6064356001600160401b03811161038f57610c0461148b61151992369060040161066f565b6001600160a01b0386165f9081526002602052604090208054600181019091556115139060405160208101917ff2aad550cf55f045cb27e9c559f9889fdfb6e6cdaa032301d6ea397784ae51d7835288604083015260ff8816606083015260018060a01b038a16608083015260a082015260a0815261150b60c0826105e7565b51902061284d565b86612873565b61153457906110d69161050a9361152e611d87565b92612830565b6394ab6c0760e01b5f526001600160a01b03831660045260245b5ffd5b3461038f575f36600319011261038f57602061156b61221d565b65ffffffffffff60405191168152f35b3461038f575f36600319011261038f57602060405160648152f35b3461038f57606036600319011261038f576004356115b3816105c2565b6024356044356001600160401b03811161038f576115d590369060040161066f565b50604051630748d63560e31b81526001600160a01b039283166004820152602481019190915290602090829060449082907f0000000000000000000000000000000000000000000000000000000000000000165afa8015610ac05761050a915f9161164c575b506040519081529081906020820190565b611665915060203d602011610aed57610adf81836105e7565b5f61163b565b3461038f575f36600319011261038f5760206001600160d01b0361168d612ed2565b16604051908152f35b3461038f57602036600319011261038f576004356116b3816105c2565b6116bb612506565b600b54604080516001600160a01b03808416825290931660208401819052927f08f74ea46ef7894f65eabfb5e6e695de773a000b47c529ab559178069b2264019190a16001600160a01b03191617600b55005b3461038f57602036600319011261038f57602060405160018152f35b3461038f57602036600319011261038f57602061100b6004355f52600460205265ffffffffffff600160405f2001541690565b3461038f575f36600319011261038f57602061100b6122dd565b3461038f5760a036600319011261038f576117936004356105c2565b61179e6024356105c2565b6044356001600160401b03811161038f576117bd903690600401610784565b506064356001600160401b03811161038f576117dd903690600401610784565b506084356001600160401b03811161038f576117fd90369060040161066f565b5061050a611809612360565b6040516001600160e01b031990911681529081906020820190565b3461038f57602036600319011261038f57602061100b60043561237f565b606036600319011261038f5760043561185a816105c2565b6024356044356001600160401b03811161038f57610020925f9261188384933690600401611013565b919061188d612506565b826040519384928337810185815203925af16118a76123c6565b90612f16565b3461038f57602061100b6118c03661085f565b92919091612489565b3461038f575f36600319011261038f57600b546040516001600160a01b039091168152602090f35b3461038f575f36600319011261038f5761050a6040516119126040826105e7565b602081527f737570706f72743d627261766f2671756f72756d3d666f722c6162737461696e602082015260405191829160208352602083019061047e565b3461038f575f36600319011261038f5760206040517ff2aad550cf55f045cb27e9c559f9889fdfb6e6cdaa032301d6ea397784ae51d78152f35b3461038f57602036600319011261038f5760043563ffffffff81169081810361038f576119b5612506565b8115611a1d5769ffffffff000000000000907f7e3f7f0708a84de9203036abaa450dccc85ad5ff52f78c170f3edb55cf5e882860406008549481519063ffffffff8760301c1682526020820152a160301b169069ffffffff0000000000001916176008555f80f35b63f1cfbf0560e01b5f525f60045260245ffd5b3461038f57604036600319011261038f57600435611a4d816105c2565b6024355f604051611a5f6020826105e7565b52604051630748d63560e31b81526001600160a01b039283166004820152602481019190915290602090829060449082907f0000000000000000000000000000000000000000000000000000000000000000165afa8015610ac05761050a915f9161164c57506040519081529081906020820190565b3461038f57602036600319011261038f57600435611af1612506565b60075460408051918252602082018390527fccb45da8d5717e6c4544694297c4ba5cf151d455c9bb0ed4fc7a38411bc0546191a1600755005b3461038f5760a036600319011261038f57611b466004356105c2565b611b516024356105c2565b6084356001600160401b03811161038f57611b7090369060040161066f565b50600b54306001600160a01b03909116036106f75760405163f23a6e6160e01b8152602090f35b3461038f57602036600319011261038f57600435604051632394e7a360e21b815260048101829052906020826024817f00000000000000000000000000000000000000000000000000000000000000006001600160a01b03165afa918215610ac0575f92611c2d575b50611c0a90611fc8565b90818102918183041490151715611c285761050a90606490046110d6565b611f97565b611c0a919250611c4b9060203d602011610aed57610adf81836105e7565b9190611c00565b3461038f575f36600319011261038f576040517f00000000000000000000000000000000000000000000000000000000000000006001600160a01b03168152602090f35b90600182811c92168015611cc4575b6020831014611cb057565b634e487b7160e01b5f52602260045260245ffd5b91607f1691611ca5565b5f9291815491611cdd83611c96565b8083529260018116908115611d325750600114611cf957505050565b5f9081526020812093945091925b838310611d18575060209250010190565b600181602092949394548385870101520191019190611d07565b915050602093945060ff929192191683830152151560051b010190565b634e487b7160e01b5f52603260045260245ffd5b8051821015611d775760209160051b010190565b611d4f565b6040513d5f823e3d90fd5b60405190611d966020836105e7565b5f8252565b60405190611daa6040836105e7565b601d82527f6d6f64653d626c6f636b6e756d6265722666726f6d3d64656661756c740000006020830152565b604051634bf5d7e960e01b81525f816004817f00000000000000000000000000000000000000000000000000000000000000006001600160a01b03165afa5f9181611e2a575b506104b357506104b3611d9b565b9091503d805f833e611e3c81836105e7565b81019060208183031261038f578051906001600160401b03821161038f570181601f8201121561038f57805190611e728261061e565b92611e8060405194856105e7565b8284526020838301011161038f57815f9260208093018386015e83010152905f611e1c565b939092919695610c04611f6091611f5a8a611ed98160018060a01b03165f52600260205260405f2080549060018201905590565b611ee436888a610639565b602081519101208b5160208d0120906040519260208401947f3e83946653575f9a39005e1545185629e92736b7528ab20ca3816f315424a81186528d604086015260ff8d16606086015260018060a01b0316608085015260a084015260c083015260e082015260e0815261150b610100826105e7565b8a612873565b611f7b576104b3959691611f75913691610639565b926129b0565b6394ab6c0760e01b5f526001600160a01b03871660045260245ffd5b634e487b7160e01b5f52601160045260245ffd5b5f19810191908211611c2857565b602719810191908211611c2857565b600a54905f198201828111611c2857821115611d7757600a5f527fc65a7bb8d6351c1cf70c95a316cc6a92839c986682d98bc35f958f4883f9d2a78201548165ffffffffffff821611156120ff575061202090612aef565b5f82916005841161208e575b612036935061356f565b8061204057505f90565b61208261207b6120526104b393611fab565b600a5f527fc65a7bb8d6351c1cf70c95a316cc6a92839c986682d98bc35f958f4883f9d2a80190565b5460301c90565b6001600160d01b031690565b9192612099816133fc565b8103908111611c285761203693600a5f5265ffffffffffff827fc65a7bb8d6351c1cf70c95a316cc6a92839c986682d98bc35f958f4883f9d2a801541665ffffffffffff8516105f146120ed57509161202c565b9291506120f990612b1e565b9061202c565b91505060301c90565b91939290936121178233612b66565b1561220a575f1965ffffffffffff61212d61221d565b16019465ffffffffffff8611611c28575f60405161214c6020826105e7565b52604051630748d63560e31b815233600482015265ffffffffffff9690961660248701526020866044817f00000000000000000000000000000000000000000000000000000000000000006001600160a01b03165afa958615610ac0575f966121e9575b506121b96122dd565b8087106121ce57506104b39495503393612d32565b636121770b60e11b5f5233600452602487905260445260645ffd5b61220391965060203d602011610aed57610adf81836105e7565b945f6121b0565b63d9b3955760e01b5f523360045260245ffd5b6040516324776b7d60e21b81526020816004817f00000000000000000000000000000000000000000000000000000000000000006001600160a01b03165afa5f9181612273575b506104b357506104b343612aef565b9091506020813d6020116122a8575b8161228f602093836105e7565b8101031261038f57516122a181611179565b905f612264565b3d9150612282565b9081602091031261038f575190565b81156122c9570490565b634e487b7160e01b5f52601260045260245ffd5b5f194301438111611c2857604051632394e7a360e21b815260048101919091526020816024817f00000000000000000000000000000000000000000000000000000000000000006001600160a01b03165afa8015610ac0576064915f9161234357500490565b61235c915060203d602011610aed57610adf81836105e7565b0490565b600b54306001600160a01b03909116036106f75763bc197c8160e01b90565b805f52600460205265ffffffffffff60405f205460a01c16905f52600460205263ffffffff60405f205460d01c160165ffffffffffff8111611c285765ffffffffffff1690565b3d156123f0573d906123d78261061e565b916123e560405193846105e7565b82523d5f602084013e565b606090565b90602080835192838152019201905f5b8181106124125750505090565b82516001600160a01b0316845260209384019390920191600101612405565b9080602083519182815201916020808360051b8301019401925f915b83831061245c57505050505090565b909192939460208061247a600193601f19868203018752895161047e565b9701930193019193929061244d565b92906124ea916124d66124c4946040519586946124b2602087019960808b5260a08801906123f5565b868103601f1901604088015290611339565b848103601f1901606086015290612431565b90608083015203601f1981018352826105e7565b51902090565b600b54306001600160a01b03909116036106f757565b600b54336001600160a01b039091160361256f57600b54306001600160a01b039091160361253057565b6125393661061e565b61254660405191826105e7565b3681526020810190365f83375f602036830101525190205b80612567612f3c565b0361255e5750565b6347096e4760e01b5f523360045260245ffd5b6008811015610d1d5760ff600191161b90565b600452606491906008811015610d1d576024525f604452565b6125b781612723565b9060106125c383612582565b16156125cd575090565b6331b75e4d60e01b5f526004526125e49150610d22565b601060445260645ffd5b6125f781612723565b90600161260383612582565b161561260d575090565b6331b75e4d60e01b5f526004526126249150610d22565b600160445260645ffd5b61263781612723565b90600261264383612582565b161561264d575090565b6331b75e4d60e01b5f526004526126649150610d22565b600260445260645ffd5b9061267882612723565b918161268384612582565b161561268e57505090565b6331b75e4d60e01b5f526004526126a482610d22565b60445260645ffd5b600554908160801c6001600160801b036001820193166001600160801b038416146126fc575f52600660205260405f20556001600160801b036005549181199082199060801b1616911617600555565b638acb5f2760e01b5f5260045ffd5b9081602091031261038f5751801515810361038f5790565b61272c816130c2565b9061273682610d13565b6005820361282c5761275191505f52600c60205260405f2090565b54600b54612767906001600160a01b0316610906565b604051632c258a9f60e11b815260048101839052602081602481855afa908115610ac0575f9161280d575b501561279f575050600590565b604051632ab0f52960e01b81526004810192909252602090829060249082905afa908115610ac0575f916127de575b50156127d957600790565b600290565b612800915060203d602011612806575b6127f881836105e7565b81019061270b565b5f6127ce565b503d6127ee565b612826915060203d602011612806576127f881836105e7565b5f612792565b5090565b916104b39391604051936128456020866105e7565b5f85526129b0565b6042906128586131cd565b906040519161190160f01b8352600283015260228201522090565b9061287e83826132e3565b506004819592951015610d1d5715938461293a575b5083156128a1575b50505090565b5f9350906128d96128e78594936040519283916020830195630b135d3f60e11b8752602484015260406044840152606483019061047e565b03601f1981018352826105e7565b51915afa6128f36123c6565b8161292c575b81612908575b505f808061289b565b9050612925630b135d3f60e11b91602080825183010191016122b0565b145f6128ff565b9050602081511015906128f9565b6001600160a01b0384811691161493505f612893565b93909260ff61297c936104b397958752166020860152604085015260a0606085015260a084019061047e565b91608081840391015261047e565b909260ff6080936104b3969584521660208301526040820152816060820152019061047e565b93929190936129be8161262e565b50805f52600460205265ffffffffffff6129e560405f2065ffffffffffff905460a01c1690565b169360405195630748d63560e31b875260018060a01b03811695866004890152602488015260208760448160018060a01b037f0000000000000000000000000000000000000000000000000000000000000000165afa968715610ac0575f97612ac8575b508684612a56928561331d565b8051612a955750612a8f7fb8e138887d0aa13bab447e82de9d5c1777041ecd21ca36ba824ff1e6c07ddda493866040519485948561298a565b0390a290565b612a8f907fe2babfbac5889a709b63bb7f598b324e08bc5a4fb9ec647fb3cbc9ec07eb8712948760405195869586612950565b84975090612ae7612a569260203d602011610aed57610adf81836105e7565b975090612a49565b65ffffffffffff8111612b075765ffffffffffff1690565b6306dfcc6560e41b5f52603060045260245260445ffd5b9060018201809211611c2857565b9060058201809211611c2857565b90600a8201809211611c2857565b91908201809211611c2857565b908151811015611d77570160200190565b815160348110612c155760131981840101516001600160a01b0319166b1b91f1b211f2119351b859f160a31b01612c1557915f92612ba381611fb9565b915b818310612bc0575050506001600160a01b0391821691161490565b909193612be6612be1612bd38785612b55565b516001600160f81b03191690565b6135e8565b9015612c0a5760019160ff9060041b6010600160a01b031691161794019190612ba5565b505050505050600190565b505050600190565b90612c2782610706565b612c3460405191826105e7565b8281528092612c45601f1991610706565b01905f5b828110612c5557505050565b806060602080938501015201612c49565b959998969794939192612ca793612c9992885260018060a01b0316602088015261012060408801526101208701906123f5565b908582036060870152611339565b968388036080850152815180895260208901906020808260051b8c01019401915f905b828210612d0657505050506104b396975090612ced9184820360a0860152612431565b9360c083015260e082015261010081840391015261047e565b90919294602080612d246001938f601f19908203018652895161047e565b970192019201909291612cca565b929094939194612d4a82516020840120878387612489565b958451825190818114801590612ec7575b8015612ebf575b612ea057505065ffffffffffff612d93612d84895f52600460205260405f2090565b5460a01c65ffffffffffff1690565b16612e835791612e7e917f7d84a6263ae0d98d3329bd7b46bb4e8d6f98cd35a7adb45c274c8b7fd5ebd5e0959493612dd965ffffffffffff612dd361221d565b16612b2c565b90612e5d600a612df18c5f52600460205260405f2090565b80546001600160a01b0319166001600160a01b038a16178155612e3a612e1686612aef565b825465ffffffffffff60a01b191660a09190911b65ffffffffffff60a01b16178255565b805463ffffffff60d01b191660d09290921b63ffffffff60d01b16919091179055565b612e678751612c1d565b612e7083612b3a565b936040519889988d8a612c66565b0390a1565b61154e87612e9081612723565b6331b75e4d60e01b5f5290612595565b9151630447b05d60e41b5f908152600493909352602452604452606490fd5b508015612d62565b508251811415612d5b565b600a5480612edf57505f90565b805f19810111611c2857600a5f527fc65a7bb8d6351c1cf70c95a316cc6a92839c986682d98bc35f958f4883f9d2a7015460301c90565b90919061061c5750805115612f2d57805190602001fd5b630a12f52160e11b5f5260045ffd5b600554906001600160801b0382169160801c8214612f94575f8281526006602052604081208054919055600580546fffffffffffffffffffffffffffffffff191660019094016001600160801b031693909317909255565b6375e52f4f60e01b5f5260045ffd5b949392612fcf608093612fc1612fdd9460a08a5260a08a01906123f5565b9088820360208a0152611339565b908682036040880152612431565b935f60608201520152565b919261301760a094613009613025949998979960c0875260c08701906123f5565b908582036020870152611339565b908382036040850152612431565b945f606083015260808201520152565b600b5490949192916001600160a01b03909116906bffffffffffffffffffffffff193060601b16823b1561038f576130875f956040519788968795869563e38335e560e01b8752189260048601612fa3565b039134905af18015610ac0576130a9575b505f908152600c6020526040812055565b806130b55f80936105e7565b80031261038f575f613098565b6130d4815f52600460205260405f2090565b5460f881901c9060f01c60ff166131c6576131c05761310c613101612d84835f52600460205260405f2090565b65ffffffffffff1690565b80156131ac5761311d61310161221d565b809110156131a65761312e8261237f565b106131395750600190565b613145610c04826138ba565b8015613183575b156131575750600390565b613175905f52600460205265ffffffffffff600160405f2001541690565b61317e57600490565b600590565b506131a1610c04825f52600960205260405f20600181015490541090565b61314c565b50505f90565b636ad0607560e01b5f52600482905260245ffd5b50600290565b5050600790565b307f00000000000000000000000000000000000000000000000000000000000000006001600160a01b031614806132ba575b15613228577f000000000000000000000000000000000000000000000000000000000000000090565b60405160208101907f8b73c3c69bb8fe3d512ecc4cf759cc79239f7b179b0ffacaa9a75d522b39400f82527f000000000000000000000000000000000000000000000000000000000000000060408201527f000000000000000000000000000000000000000000000000000000000000000060608201524660808201523060a082015260a081526124ea60c0826105e7565b507f000000000000000000000000000000000000000000000000000000000000000046146131ff565b81519190604183036133135761330c9250602082015190606060408401519301515f1a9061398f565b9192909190565b50505f9160029190565b613332909291925f52600960205260405f2090565b916003830161335b61335483839060018060a01b03165f5260205260405f2090565b5460ff1690565b6133e05761337f60ff939261338c929060018060a01b03165f5260205260405f2090565b805460ff19166001179055565b16806133a357509061339f908254612b48565b9055565b600181036133bb5750600161339f9101918254612b48565b6002036133d157600261339f9101918254612b48565b6303599be160e11b5f5260045ffd5b6371c6af4960e01b5f526001600160a01b03821660045260245ffd5b801561356a576104b3906135006134f96134ef6134e56134db6134d16134c76134bd60016134ab5f8b608081901c8061355c575b508061343f6134a19260401c90565b8061354f575b506134508160201c90565b80613542575b506134618160101c90565b80613535575b506134728160081c90565b80613528575b506134838160041c90565b8061351b575b506134948160021c90565b8061350e575b5060011c90565b6135065760011c90565b1b6134b6818b6122bf565b0160011c90565b6134b6818a6122bf565b6134b681896122bf565b6134b681886122bf565b6134b681876122bf565b6134b681866122bf565b6134b681856122bf565b80926122bf565b90613a11565b820160011c90565b600291509201915f61349a565b600491509201915f613489565b600891509201915f613478565b601091509201915f613467565b602091509201915f613456565b604091509201915f613445565b6080925090506134a1613430565b505f90565b905b82811061357d57505090565b90918082169080831860011c8201809211611c2857600a5f527fc65a7bb8d6351c1cf70c95a316cc6a92839c986682d98bc35f958f4883f9d2a882015465ffffffffffff90811690851610156135d65750915b90613571565b9291506135e290612b1e565b906135d0565b60f81c9081602f108061365b575b1561360857600191602f190160ff1690565b8160401080613651575b15613624576001916036190160ff1690565b8160601080613647575b15613640576001916056190160ff1690565b5f91508190565b506067821061362e565b5060478210613612565b50603a82106135f6565b60ff81146136ab5760ff811690601f821161369c57604051916136896040846105e7565b6020808452838101919036833783525290565b632cd44ac360e21b5f5260045ffd5b506040516104b3816136bd815f611cce565b03826105e7565b60ff81146136e85760ff811690601f821161369c57604051916136896040846105e7565b506040516104b3816136bd816001611cce565b908154680100000000000000008110156106085760018101808455811015611d775761061c925f5260205f20019061375065ffffffffffff825116839065ffffffffffff1665ffffffffffff19825416179055565b60200151815465ffffffffffff1660309190911b65ffffffffffff1916179055565b90604051604081018181106001600160401b0382111761060857604052915465ffffffffffff8116835260301c6020830152565b600a5491929190811561389157816137cf6137ca61205265ffffffffffff95611fab565b613772565b906137e0825165ffffffffffff1690565b8484169485911611613882578560209361384395613807613101865165ffffffffffff1690565b03613847575061381c61205261383593611fab565b9065ffffffffffff82549181199060301b169116179055565b01516001600160d01b031690565b9190565b905061387d915061386761385961060d565b65ffffffffffff9092168252565b6001600160d01b038716818501525b600a6136fb565b613835565b632520601d60e01b5f5260045ffd5b6138b591506138a161385961060d565b6001600160d01b0384166020820152613876565b5f9190565b805f52600960205260405f20905f52600460205265ffffffffffff60405f205460a01c1660405190632394e7a360e21b825280600483015260208260248160018060a01b037f0000000000000000000000000000000000000000000000000000000000000000165afa918215610ac0575f9261396a575b5061393b90611fc8565b90818102918183041490151715611c28576139659060649004916002600182015491015490612b48565b101590565b61393b9192506139889060203d602011610aed57610adf81836105e7565b9190613931565b91907f7fffffffffffffffffffffffffffffff5d576e7357a4501ddfe92f46681b20a08411613a06579160209360809260ff5f9560405194855216868401526040830152606082015282805260015afa15610ac0575f516001600160a01b038116156139fc57905f905f90565b505f906001905f90565b5050505f9160039190565b9080821015613a1e575090565b90509056fea264697066735822122077f9952b8e835503baadd2047a87ab7f5945970fc31945bf51be3a063aefead864736f6c63430008210033","linkReferences":{}},"methodIdentifiers":{"BALLOT_TYPEHASH()":"deaaa7cc","CLOCK_MODE()":"4bf5d7e9","COUNTING_MODE()":"dd4e2ba5","EXTENDED_BALLOT_TYPEHASH()":"2fe3e261","cancel(address[],uint256[],bytes[],bytes32)":"452115d6","castVote(uint256,uint8)":"56781388","castVoteBySig(uint256,uint8,address,bytes)":"8ff262e3","castVoteWithReason(uint256,uint8,string)":"7b3c71d3","castVoteWithReasonAndParams(uint256,uint8,string,bytes)":"5f398a14","castVoteWithReasonAndParamsBySig(uint256,uint8,address,string,bytes,bytes)":"5b8d0e0d","clock()":"91ddadf4","eip712Domain()":"84b0196e","execute(address[],uint256[],bytes[],bytes32)":"2656227d","getVotes(address,uint256)":"eb9019d4","getVotesWithParams(address,uint256,bytes)":"9a802a6d","hasVoted(uint256,address)":"43859632","hashProposal(address[],uint256[],bytes[],bytes32)":"c59057e4","name()":"06fdde03","nonces(address)":"7ecebe00","onERC1155BatchReceived(address,address,uint256[],uint256[],bytes)":"bc197c81","onERC1155Received(address,address,uint256,uint256,bytes)":"f23a6e61","onERC721Received(address,address,uint256,bytes)":"150b7a02","proposalDeadline(uint256)":"c01f9e37","proposalEta(uint256)":"ab58fb8e","proposalNeedsQueuing(uint256)":"a9a95294","proposalProposer(uint256)":"143489d0","proposalSnapshot(uint256)":"2d63f693","proposalThreshold()":"b58131b0","proposalVotes(uint256)":"544ffc9c","propose(address[],uint256[],bytes[],string)":"7d5e81e2","queue(address[],uint256[],bytes[],bytes32)":"160cbed7","quorum(uint256)":"f8ce560a","quorumDenominator()":"97c3d334","quorumNumerator()":"a7713a70","quorumNumerator(uint256)":"60c4247f","relay(address,uint256,bytes)":"c28bc2fa","setProposalThreshold(uint256)":"ece40cc1","setVotingDelay(uint48)":"79051887","setVotingPeriod(uint32)":"e540d01d","state(uint256)":"3e4f49e6","supportsInterface(bytes4)":"01ffc9a7","timelock()":"d33219b4","token()":"fc0c546a","updateQuorumNumerator(uint256)":"06f3f9e6","updateTimelock(address)":"a890c910","version()":"54fd4d50","votingDelay()":"3932abb1","votingPeriod()":"02a251a3"},"id":106}