{"abi":[{"type":"constructor","inputs":[{"name":"asset_","type":"address","internalType":"contract IERC20"},{"name":"nftContract_","type":"address","internalType":"contract IERC1155"},{"name":"boostedNftId_","type":"uint256","internalType":"uint256"},{"name":"owner_","type":"address","internalType":"address"}],"stateMutability":"nonpayable"},{"type":"function","name":"BASE_BPS","inputs":[],"outputs":[{"name":"","type":"uint256","internalType":"uint256"}],"stateMutability":"view"},{"type":"function","name":"allowance","inputs":[{"name":"owner","type":"address","internalType":"address"},{"name":"spender","type":"address","internalType":"address"}],"outputs":[{"name":"","type":"uint256","internalType":"uint256"}],"stateMutability":"view"},{"type":"function","name":"approve","inputs":[{"name":"spender","type":"address","internalType":"address"},{"name":"value","type":"uint256","internalType":"uint256"}],"outputs":[{"name":"","type":"bool","internalType":"bool"}],"stateMutability":"nonpayable"},{"type":"function","name":"asset","inputs":[],"outputs":[{"name":"","type":"address","internalType":"address"}],"stateMutability":"view"},{"type":"function","name":"balanceOf","inputs":[{"name":"account","type":"address","internalType":"address"}],"outputs":[{"name":"","type":"uint256","internalType":"uint256"}],"stateMutability":"view"},{"type":"function","name":"boostBps","inputs":[],"outputs":[{"name":"","type":"uint256","internalType":"uint256"}],"stateMutability":"view"},{"type":"function","name":"boostedNftId","inputs":[],"outputs":[{"name":"","type":"uint256","internalType":"uint256"}],"stateMutability":"view"},{"type":"function","name":"convertToAssets","inputs":[{"name":"shares","type":"uint256","internalType":"uint256"}],"outputs":[{"name":"","type":"uint256","internalType":"uint256"}],"stateMutability":"view"},{"type":"function","name":"convertToShares","inputs":[{"name":"assets","type":"uint256","internalType":"uint256"}],"outputs":[{"name":"","type":"uint256","internalType":"uint256"}],"stateMutability":"view"},{"type":"function","name":"decimals","inputs":[],"outputs":[{"name":"","type":"uint8","internalType":"uint8"}],"stateMutability":"view"},{"type":"function","name":"deposit","inputs":[{"name":"assets","type":"uint256","internalType":"uint256"},{"name":"receiver","type":"address","internalType":"address"}],"outputs":[{"name":"","type":"uint256","internalType":"uint256"}],"stateMutability":"nonpayable"},{"type":"function","name":"injectYield","inputs":[{"name":"amount","type":"uint256","internalType":"uint256"}],"outputs":[],"stateMutability":"nonpayable"},{"type":"function","name":"isRenting","inputs":[{"name":"","type":"address","internalType":"address"}],"outputs":[{"name":"","type":"bool","internalType":"bool"}],"stateMutability":"view"},{"type":"function","name":"maxDeposit","inputs":[{"name":"","type":"address","internalType":"address"}],"outputs":[{"name":"","type":"uint256","internalType":"uint256"}],"stateMutability":"view"},{"type":"function","name":"maxMint","inputs":[{"name":"","type":"address","internalType":"address"}],"outputs":[{"name":"","type":"uint256","internalType":"uint256"}],"stateMutability":"view"},{"type":"function","name":"maxRedeem","inputs":[{"name":"owner","type":"address","internalType":"address"}],"outputs":[{"name":"","type":"uint256","internalType":"uint256"}],"stateMutability":"view"},{"type":"function","name":"maxWithdraw","inputs":[{"name":"owner","type":"address","internalType":"address"}],"outputs":[{"name":"","type":"uint256","internalType":"uint256"}],"stateMutability":"view"},{"type":"function","name":"mint","inputs":[{"name":"shares","type":"uint256","internalType":"uint256"},{"name":"receiver","type":"address","internalType":"address"}],"outputs":[{"name":"","type":"uint256","internalType":"uint256"}],"stateMutability":"nonpayable"},{"type":"function","name":"name","inputs":[],"outputs":[{"name":"","type":"string","internalType":"string"}],"stateMutability":"view"},{"type":"function","name":"nftContract","inputs":[],"outputs":[{"name":"","type":"address","internalType":"contract IERC1155"}],"stateMutability":"view"},{"type":"function","name":"onERC1155BatchReceived","inputs":[{"name":"","type":"address","internalType":"address"},{"name":"","type":"address","internalType":"address"},{"name":"","type":"uint256[]","internalType":"uint256[]"},{"name":"","type":"uint256[]","internalType":"uint256[]"},{"name":"","type":"bytes","internalType":"bytes"}],"outputs":[{"name":"","type":"bytes4","internalType":"bytes4"}],"stateMutability":"pure"},{"type":"function","name":"onERC1155Received","inputs":[{"name":"","type":"address","internalType":"address"},{"name":"","type":"address","internalType":"address"},{"name":"","type":"uint256","internalType":"uint256"},{"name":"","type":"uint256","internalType":"uint256"},{"name":"","type":"bytes","internalType":"bytes"}],"outputs":[{"name":"","type":"bytes4","internalType":"bytes4"}],"stateMutability":"pure"},{"type":"function","name":"owner","inputs":[],"outputs":[{"name":"","type":"address","internalType":"address"}],"stateMutability":"view"},{"type":"function","name":"previewDeposit","inputs":[{"name":"assets","type":"uint256","internalType":"uint256"}],"outputs":[{"name":"","type":"uint256","internalType":"uint256"}],"stateMutability":"view"},{"type":"function","name":"previewMint","inputs":[{"name":"shares","type":"uint256","internalType":"uint256"}],"outputs":[{"name":"","type":"uint256","internalType":"uint256"}],"stateMutability":"view"},{"type":"function","name":"previewRedeem","inputs":[{"name":"shares","type":"uint256","internalType":"uint256"}],"outputs":[{"name":"","type":"uint256","internalType":"uint256"}],"stateMutability":"view"},{"type":"function","name":"previewWithdraw","inputs":[{"name":"assets","type":"uint256","internalType":"uint256"}],"outputs":[{"name":"","type":"uint256","internalType":"uint256"}],"stateMutability":"view"},{"type":"function","name":"redeem","inputs":[{"name":"shares","type":"uint256","internalType":"uint256"},{"name":"receiver","type":"address","internalType":"address"},{"name":"owner","type":"address","internalType":"address"}],"outputs":[{"name":"","type":"uint256","internalType":"uint256"}],"stateMutability":"nonpayable"},{"type":"function","name":"renounceOwnership","inputs":[],"outputs":[],"stateMutability":"nonpayable"},{"type":"function","name":"rentals","inputs":[{"name":"","type":"uint256","internalType":"uint256"}],"outputs":[{"name":"renter","type":"address","internalType":"address"},{"name":"stakedAt","type":"uint256","internalType":"uint256"}],"stateMutability":"view"},{"type":"function","name":"setBoostBps","inputs":[{"name":"newBoostBps","type":"uint256","internalType":"uint256"}],"outputs":[],"stateMutability":"nonpayable"},{"type":"function","name":"stakeNFT","inputs":[{"name":"nftId","type":"uint256","internalType":"uint256"}],"outputs":[],"stateMutability":"nonpayable"},{"type":"function","name":"supportsInterface","inputs":[{"name":"interfaceId","type":"bytes4","internalType":"bytes4"}],"outputs":[{"name":"","type":"bool","internalType":"bool"}],"stateMutability":"pure"},{"type":"function","name":"symbol","inputs":[],"outputs":[{"name":"","type":"string","internalType":"string"}],"stateMutability":"view"},{"type":"function","name":"totalAssets","inputs":[],"outputs":[{"name":"","type":"uint256","internalType":"uint256"}],"stateMutability":"view"},{"type":"function","name":"totalSupply","inputs":[],"outputs":[{"name":"","type":"uint256","internalType":"uint256"}],"stateMutability":"view"},{"type":"function","name":"transfer","inputs":[{"name":"to","type":"address","internalType":"address"},{"name":"value","type":"uint256","internalType":"uint256"}],"outputs":[{"name":"","type":"bool","internalType":"bool"}],"stateMutability":"nonpayable"},{"type":"function","name":"transferFrom","inputs":[{"name":"from","type":"address","internalType":"address"},{"name":"to","type":"address","internalType":"address"},{"name":"value","type":"uint256","internalType":"uint256"}],"outputs":[{"name":"","type":"bool","internalType":"bool"}],"stateMutability":"nonpayable"},{"type":"function","name":"transferOwnership","inputs":[{"name":"newOwner","type":"address","internalType":"address"}],"outputs":[],"stateMutability":"nonpayable"},{"type":"function","name":"unstakeNFT","inputs":[{"name":"nftId","type":"uint256","internalType":"uint256"}],"outputs":[],"stateMutability":"nonpayable"},{"type":"function","name":"withdraw","inputs":[{"name":"assets","type":"uint256","internalType":"uint256"},{"name":"receiver","type":"address","internalType":"address"},{"name":"owner","type":"address","internalType":"address"}],"outputs":[{"name":"","type":"uint256","internalType":"uint256"}],"stateMutability":"nonpayable"},{"type":"event","name":"Approval","inputs":[{"name":"owner","type":"address","indexed":true,"internalType":"address"},{"name":"spender","type":"address","indexed":true,"internalType":"address"},{"name":"value","type":"uint256","indexed":false,"internalType":"uint256"}],"anonymous":false},{"type":"event","name":"BoostUpdated","inputs":[{"name":"newBoostBps","type":"uint256","indexed":true,"internalType":"uint256"}],"anonymous":false},{"type":"event","name":"Deposit","inputs":[{"name":"sender","type":"address","indexed":true,"internalType":"address"},{"name":"owner","type":"address","indexed":true,"internalType":"address"},{"name":"assets","type":"uint256","indexed":false,"internalType":"uint256"},{"name":"shares","type":"uint256","indexed":false,"internalType":"uint256"}],"anonymous":false},{"type":"event","name":"NFTStaked","inputs":[{"name":"renter","type":"address","indexed":true,"internalType":"address"},{"name":"nftId","type":"uint256","indexed":true,"internalType":"uint256"}],"anonymous":false},{"type":"event","name":"NFTUnstaked","inputs":[{"name":"renter","type":"address","indexed":true,"internalType":"address"},{"name":"nftId","type":"uint256","indexed":true,"internalType":"uint256"}],"anonymous":false},{"type":"event","name":"OwnershipTransferred","inputs":[{"name":"previousOwner","type":"address","indexed":true,"internalType":"address"},{"name":"newOwner","type":"address","indexed":true,"internalType":"address"}],"anonymous":false},{"type":"event","name":"Transfer","inputs":[{"name":"from","type":"address","indexed":true,"internalType":"address"},{"name":"to","type":"address","indexed":true,"internalType":"address"},{"name":"value","type":"uint256","indexed":false,"internalType":"uint256"}],"anonymous":false},{"type":"event","name":"Withdraw","inputs":[{"name":"sender","type":"address","indexed":true,"internalType":"address"},{"name":"receiver","type":"address","indexed":true,"internalType":"address"},{"name":"owner","type":"address","indexed":true,"internalType":"address"},{"name":"assets","type":"uint256","indexed":false,"internalType":"uint256"},{"name":"shares","type":"uint256","indexed":false,"internalType":"uint256"}],"anonymous":false},{"type":"event","name":"YieldInjected","inputs":[{"name":"amount","type":"uint256","indexed":true,"internalType":"uint256"}],"anonymous":false},{"type":"error","name":"AddressEmptyCode","inputs":[{"name":"target","type":"address","internalType":"address"}]},{"type":"error","name":"AddressInsufficientBalance","inputs":[{"name":"account","type":"address","internalType":"address"}]},{"type":"error","name":"AlreadyStaked","inputs":[]},{"type":"error","name":"BoostBelowBase","inputs":[]},{"type":"error","name":"ERC20InsufficientAllowance","inputs":[{"name":"spender","type":"address","internalType":"address"},{"name":"allowance","type":"uint256","internalType":"uint256"},{"name":"needed","type":"uint256","internalType":"uint256"}]},{"type":"error","name":"ERC20InsufficientBalance","inputs":[{"name":"sender","type":"address","internalType":"address"},{"name":"balance","type":"uint256","internalType":"uint256"},{"name":"needed","type":"uint256","internalType":"uint256"}]},{"type":"error","name":"ERC20InvalidApprover","inputs":[{"name":"approver","type":"address","internalType":"address"}]},{"type":"error","name":"ERC20InvalidReceiver","inputs":[{"name":"receiver","type":"address","internalType":"address"}]},{"type":"error","name":"ERC20InvalidSender","inputs":[{"name":"sender","type":"address","internalType":"address"}]},{"type":"error","name":"ERC20InvalidSpender","inputs":[{"name":"spender","type":"address","internalType":"address"}]},{"type":"error","name":"ERC4626ExceededMaxDeposit","inputs":[{"name":"receiver","type":"address","internalType":"address"},{"name":"assets","type":"uint256","internalType":"uint256"},{"name":"max","type":"uint256","internalType":"uint256"}]},{"type":"error","name":"ERC4626ExceededMaxMint","inputs":[{"name":"receiver","type":"address","internalType":"address"},{"name":"shares","type":"uint256","internalType":"uint256"},{"name":"max","type":"uint256","internalType":"uint256"}]},{"type":"error","name":"ERC4626ExceededMaxRedeem","inputs":[{"name":"owner","type":"address","internalType":"address"},{"name":"shares","type":"uint256","internalType":"uint256"},{"name":"max","type":"uint256","internalType":"uint256"}]},{"type":"error","name":"ERC4626ExceededMaxWithdraw","inputs":[{"name":"owner","type":"address","internalType":"address"},{"name":"assets","type":"uint256","internalType":"uint256"},{"name":"max","type":"uint256","internalType":"uint256"}]},{"type":"error","name":"FailedInnerCall","inputs":[]},{"type":"error","name":"MathOverflowedMulDiv","inputs":[]},{"type":"error","name":"NotRenter","inputs":[]},{"type":"error","name":"OwnableInvalidOwner","inputs":[{"name":"owner","type":"address","internalType":"address"}]},{"type":"error","name":"OwnableUnauthorizedAccount","inputs":[{"name":"account","type":"address","internalType":"address"}]},{"type":"error","name":"ReentrancyGuardReentrantCall","inputs":[]},{"type":"error","name":"SafeERC20FailedOperation","inputs":[{"name":"token","type":"address","internalType":"address"}]},{"type":"error","name":"WrongNft","inputs":[]}],"bytecode":{"object":"0x610100806040523461048357608081611e3780380380916100208285610487565b833981010312610483578051906001600160a01b03821682036104835760208101516001600160a01b03811681036104835760408201516060909201516001600160a01b0381169081900361048357604093845161007e8682610487565b601681527f4e46542052656e74616c205661756c742053686172650000000000000000000060208201528551906100b58783610487565b600682526576534841524560d01b60208301528051906001600160401b03821161037e5760035490600182811c92168015610479575b60208310146103605781601f849311610403575b50602090601f831160011461039d575f92610392575b50508160011b915f199060031b1c1916176003555b8051906001600160401b03821161037e5760045490600182811c92168015610374575b60208310146103605781601f8493116102ea575b50602090601f8311600114610284575f92610279575b50508160011b915f199060031b1c1916176004555b610195816104aa565b9015610271575b60a052608052801561025e57600580546001600160a01b0319811683179091559351936001600160a01b03167f8be0079c531659141344cd1fd0a4f28419497f9722a3daafe3b4186f6b6457e05f80a360016006556104b060075560c05260e0526118da908161055d823960805181818161045e01528181610bed015281816110e40152818161141801526115d5015260a05181610c6d015260c0518181816103e60152818161051d0152610a8b015260e0518181816101f401526109d90152f35b631e4fbdf760e01b5f525f60045260245ffd5b50601261019c565b015190505f80610177565b60045f9081528281209350601f198516905b8181106102d257509084600195949392106102ba575b505050811b0160045561018c565b01515f1960f88460031b161c191690555f80806102ac565b92936020600181928786015181550195019301610296565b828111156101615760045f52909150601f830160051c7f8a35acfbc15ff81a39ae7d344fd709f28e8600b4aa8c65c6b64bfe7fe36bd19b60208510610358575b849392601f0160051c82900391015f5b828110610348575050610161565b5f8183015585945060010161033a565b5f915061032a565b634e487b7160e01b5f52602260045260245ffd5b91607f169161014d565b634e487b7160e01b5f52604160045260245ffd5b015190505f80610115565b60035f9081528281209350601f198516905b8181106103eb57509084600195949392106103d3575b505050811b0160035561012a565b01515f1960f88460031b161c191690555f80806103c5565b929360206001819287860151815501950193016103af565b828111156100ff5760035f52909150601f830160051c7fc2575a0e9e593c00f959f8c92f12db2869c3395a3b0502d05e2516446f71f85b60208510610471575b849392601f0160051c82900391015f5b8281106104615750506100ff565b5f81830155859450600101610453565b5f9150610443565b91607f16916100eb565b5f80fd5b601f909101601f19168101906001600160401b0382119082101761037e57604052565b5f8091604051602081019063313ce56760e01b8252600481526104ce602482610487565b51916001600160a01b03165afa3d15610554573d906001600160401b03821161037e5760405191610509601f8201601f191660200184610487565b82523d5f602084013e5b80610548575b610525575b505f905f90565b602081805181010312610483576020015160ff811161051e579060ff6001921690565b50602081511015610519565b60609061051356fe60806040526004361015610011575f80fd5b5f5f3560e01c806301e1d11414610f5b57806301ffc9a714610f2157806306fdde0314610e2d57806307a2d13a14610bd3578063095ea7b314610d855780630a28a47714610d6757806318160ddd14610d4a5780631d72f48714610cec57806323b872dd14610cb4578063313ce56714610c5957806331d11a2914610c1c57806338d52e0f14610bd8578063402d267d146104b25780634cdad50614610bd35780636142d40914610bb75780636e553f6514610b845780636eb604e0146109ba57806370a0823114610397578063715018a61461095d5780638da5cb5b1461093457806394bf804d1461090057806395d89b41146107fb578063a9059cbb146107c9578063af94a1d11461077d578063b3d7f6b91461075e578063b460af9414610701578063ba08765214610693578063bc197c81146105f7578063c1dfa0bb146104b7578063c63d75b6146104b2578063c6e6f592146102ff578063cc2587f214610439578063ce96cb7714610415578063d56d229d146103d0578063d905777e14610397578063dd62ed3e14610344578063e16ca3a414610326578063ef8b30f7146102ff578063f23a6e61146102a3578063f2fde38b1461021a5763fbd5bc2f146101dd575f80fd5b3461021757806003193601126102175760206040517f00000000000000000000000000000000000000000000000000000000000000008152f35b80fd5b503461021757602036600319011261021757610234610fbd565b61023c61126d565b6001600160a01b0316801561028f57600580546001600160a01b0319811683179091556001600160a01b03167f8be0079c531659141344cd1fd0a4f28419497f9722a3daafe3b4186f6b6457e08380a380f35b631e4fbdf760e01b82526004829052602482fd5b50346102175760a0366003190112610217576102bd610fbd565b506102c6610fd3565b5060843567ffffffffffffffff81116102fb576102e7903690600401611079565b505060405163f23a6e6160e01b8152602090f35b5080fd5b503461021757602036600319011261021757602061031e600435611240565b604051908152f35b50346102175780600319360112610217576020600754604051908152f35b5034610217576040366003190112610217576040610360610fbd565b91610369610fd3565b9260018060a01b031681526001602052209060018060a01b03165f52602052602060405f2054604051908152f35b503461021757602036600319011261021757602061031e6103b6610fbd565b6001600160a01b03165f9081526020819052604090205490565b50346102175780600319360112610217576040517f00000000000000000000000000000000000000000000000000000000000000006001600160a01b03168152602090f35b503461021757602036600319011261021757602061031e610434610fbd565b61114e565b50346102175760203660031901126102175760043561045661126d565b61048b8130337f00000000000000000000000000000000000000000000000000000000000000006001600160a01b031661163a565b7f4ddd6e8b214cc76b3f17cc871620aa39399bc32c72e377708505f9a52664c6af8280a280f35b610fe9565b5034610217576020366003190112610217576004356104d46114de565b808252600860205260408220546001600160a01b031633036105e85780825260086020908152604080842084815560010184905533845260099091528220805460ff19169055817f00000000000000000000000000000000000000000000000000000000000000006001600160a01b0316803b156102fb57604051637921219560e11b8152306004820152336024820152604481018490526001606482015260a060848201525f60a4820152908290829060c490829084905af180156105dd576105c8575b5050337f963148346e3c93bb3eb4b4c296e2e13321ff22bf1118c91686cb1bfe4adcd9188380a3600160065580f35b816105d2916110a7565b6102fb57815f610599565b6040513d84823e3d90fd5b6331abab6160e01b8252600482fd5b50346102175760a036600319011261021757610611610fbd565b5061061a610fd3565b5060443567ffffffffffffffff81116102fb5761063b903690600401611048565b505060643567ffffffffffffffff81116102fb5761065d903690600401611048565b505060843567ffffffffffffffff81116102fb5761067f903690600401611079565b505060405163bc197c8160e01b8152602090f35b5034610217576106a23661100e565b926106bd8460018060a01b03165f525f60205260405f205490565b8084116106de5760208561031e86866106d5826111a7565b938491336114fe565b915091606493632e52afbb60e21b845260018060a01b0316600452602452604452fd5b5034610217576107103661100e565b91909261071c8361114e565b80831161073d5760208461031e8786610734816111e7565b938492336114fe565b60649284633fa733bb60e21b845260018060a01b0316600452602452604452fd5b503461021757602036600319011261021757602061031e600435611179565b503461021757602036600319011261021757600435815260086020908152604091829020805460019091015483516001600160a01b0390921682529181019190915290819081015b0390f35b5034610217576040366003190112610217576107f06107e6610fbd565b6024359033611334565b602060405160018152f35b50346102175780600319360112610217576040519080600454908160011c916001811680156108f6575b6020841081146108e2578386529081156108bb575060011461085e575b6107c584610852818603826110a7565b60405191829182610f75565b600481527f8a35acfbc15ff81a39ae7d344fd709f28e8600b4aa8c65c6b64bfe7fe36bd19b939250905b8082106108a15750909150810160200161085282610842565b919260018160209254838588010152019101909291610888565b60ff191660208087019190915292151560051b850190920192506108529150839050610842565b634e487b7160e01b83526022600452602483fd5b92607f1692610825565b503461021757604036600319011261021757602060043561031e610922610fd3565b9161092c81611179565b8093336113f1565b50346102175780600319360112610217576005546040516001600160a01b039091168152602090f35b503461021757806003193601126102175761097661126d565b600580546001600160a01b0319811690915581906001600160a01b03167f8be0079c531659141344cd1fd0a4f28419497f9722a3daafe3b4186f6b6457e08280a380f35b5034610b4e576020366003190112610b4e576004356109d76114de565b7f00000000000000000000000000000000000000000000000000000000000000008103610b7557335f52600960205260ff60405f205416610b6657335f52600960205260405f20600160ff198254161790556040516040810181811067ffffffffffffffff821117610b5257604052338152600160208201428152835f52600860205260405f2092828060a01b039051166bffffffffffffffffffffffff60a01b8454161783555191015560018060a01b037f000000000000000000000000000000000000000000000000000000000000000016803b15610b4e57604051637921219560e11b8152336004820152306024820152604481018390526001606482015260a060848201525f60a482018190529091829060c490829084905af18015610b4357610b2e575b50337f0cda5cf38f6592672c7b4a22ff3d50874d1913629bd5ffedc27b7b40503d60fd8380a3600160065580f35b610b3b9192505f906110a7565b5f905f610b00565b6040513d5f823e3d90fd5b5f80fd5b634e487b7160e01b5f52604160045260245ffd5b630ae3514d60e01b5f5260045ffd5b630115ec0960e61b5f5260045ffd5b34610b4e576040366003190112610b4e57602060043561031e610ba5610fd3565b610bae83611240565b928391336113f1565b34610b4e575f366003190112610b4e5760206040516103e88152f35b610f9f565b34610b4e575f366003190112610b4e576040517f00000000000000000000000000000000000000000000000000000000000000006001600160a01b03168152602090f35b34610b4e576020366003190112610b4e576001600160a01b03610c3d610fbd565b165f526009602052602060ff60405f2054166040519015158152f35b34610b4e575f366003190112610b4e5760ff7f00000000000000000000000000000000000000000000000000000000000000001660ff8111610ca057602090604051908152f35b634e487b7160e01b5f52601160045260245ffd5b34610b4e576060366003190112610b4e576107f0610cd0610fbd565b610cd8610fd3565b60443591610ce7833383611294565b611334565b34610b4e576020366003190112610b4e57600435610d0861126d565b6103e88110610d3b57806007557fd70f5934cda3f49f14c8c57e9c866d50ca598643b5f3a27e31e8be098103b1df5f80a2005b6332ace25360e01b5f5260045ffd5b34610b4e575f366003190112610b4e576020600254604051908152f35b34610b4e576020366003190112610b4e57602061031e6004356111e7565b34610b4e576040366003190112610b4e57610d9e610fbd565b602435903315610e1a576001600160a01b0316908115610e0757335f52600160205260405f20825f526020528060405f20556040519081527f8c5be1e5ebec7d5bd14f71427d1e84f3dd0314c0f7b2291e5b200ac8c7c3b92560203392a3602060405160018152f35b634a1406b160e11b5f525f60045260245ffd5b63e602df0560e01b5f525f60045260245ffd5b34610b4e575f366003190112610b4e576040515f6003548060011c90600181168015610f17575b602083108114610f0357828552908115610edf5750600114610e81575b6107c583610852818503826110a7565b91905060035f527fc2575a0e9e593c00f959f8c92f12db2869c3395a3b0502d05e2516446f71f85b915f905b808210610ec557509091508101602001610852610e71565b919260018160209254838588010152019101909291610ead565b60ff191660208086019190915291151560051b840190910191506108529050610e71565b634e487b7160e01b5f52602260045260245ffd5b91607f1691610e54565b34610b4e576020366003190112610b4e5760043563ffffffff60e01b8116809103610b4e57604051630271189760e51b9091148152602090f35b34610b4e575f366003190112610b4e57602061031e6110c9565b602060409281835280519182918282860152018484015e5f828201840152601f01601f1916010190565b34610b4e576020366003190112610b4e57602061031e6004356111a7565b600435906001600160a01b0382168203610b4e57565b602435906001600160a01b0382168203610b4e57565b34610b4e576020366003190112610b4e57611002610fbd565b5060206040515f198152f35b6060906003190112610b4e57600435906024356001600160a01b0381168103610b4e57906044356001600160a01b0381168103610b4e5790565b9181601f84011215610b4e5782359167ffffffffffffffff8311610b4e576020808501948460051b010111610b4e57565b9181601f84011215610b4e5782359167ffffffffffffffff8311610b4e5760208381860195010111610b4e57565b90601f8019910116810190811067ffffffffffffffff821117610b5257604052565b6040516370a0823160e01b81523060048201526020816024817f00000000000000000000000000000000000000000000000000000000000000006001600160a01b03165afa908115610b43575f9161111f575090565b90506020813d602011611146575b8161113a602093836110a7565b81010312610b4e575190565b3d915061112d565b60018060a01b03165f525f60205261116960405f20546111a7565b90565b91908201809211610ca057565b6111816110c9565b9060018201809211610ca05760025460018101809111610ca05761116992600192611685565b6111af6110c9565b9060018201809211610ca05760025460018101809111610ca057611169925f92611685565b81810292918115918404141715610ca057565b6002549060018201809211610ca0576111fe6110c9565b60018101809111610ca05761121592600192611685565b335f52600960205260ff60405f20541661122c5790565b61123c6103e891600754906111d4565b0490565b6002549060018201809211610ca0576112576110c9565b60018101809111610ca057611215925f92611685565b6005546001600160a01b0316330361128157565b63118cdaa760e01b5f523360045260245ffd5b6001600160a01b039081165f81815260016020818152604080842095871684529490529290205493929184016112cb575b50505050565b828410611311578015610e1a576001600160a01b03821615610e07575f52600160205260405f209060018060a01b03165f5260205260405f20910390555f8080806112c5565b508290637dc7a0d960e11b5f5260018060a01b031660045260245260445260645ffd5b6001600160a01b03169081156113de576001600160a01b03169182156113cb57815f525f60205260405f20548181106113b257817fddf252ad1be2c89b69c2b068fc378daa952ba7f163c4a11628f55a4df523b3ef92602092855f525f84520360405f2055845f525f825260405f20818154019055604051908152a3565b8263391434e360e21b5f5260045260245260445260645ffd5b63ec442f0560e01b5f525f60045260245ffd5b634b637e8f60e11b5f525f60045260245ffd5b9060018060a01b031692835f52600960205260ff60405f2054166114c8575b61143c8330847f000000000000000000000000000000000000000000000000000000000000000061163a565b83156113cb577fdcbc1c05240f31ff3ad067ef1ee35ce4997762752e3a095284754544f4c709d7918161147360409360025461116c565b600255855f525f602052825f20818154019055855f7fddf252ad1be2c89b69c2b068fc378daa952ba7f163c4a11628f55a4df523b3ef60208651858152a3825194855260208501526001600160a01b031692a3565b6114d86103e891600754906111d4565b04611410565b6002600654146114ef576002600655565b633ee5aeb560e01b5f5260045ffd5b6001600160a01b03808416959082169390918290878603611629575b50505084156113de57845f525f60205260405f20548181106116105791816040927ffbde797d201c681b91056529119e0b02407c7bb96a4a2c75c01fc9667232c8db94885f525f60205203835f205580600254036002555f877fddf252ad1be2c89b69c2b068fc378daa952ba7f163c4a11628f55a4df523b3ef60208651858152a3825163a9059cbb60e01b60208201526001600160a01b0383166024820152604480820188905281526115f9906115d36064826110a7565b7f00000000000000000000000000000000000000000000000000000000000000006116fe565b825195865260208601526001600160a01b031693a4565b8563391434e360e21b5f5260045260245260445260645ffd5b61163292611294565b5f818161151a565b6040516323b872dd60e01b60208201526001600160a01b0392831660248201529290911660448301526064808301939093529181526116839161167e6084836110a7565b6116fe565b565b91906116928282856117b1565b9360048110156116ea5760018091161492836116c1575b5050506116b35790565b60018101809111610ca05790565b9091809350156116d6570915155f80806116a9565b634e487b7160e01b5f52601260045260245ffd5b634e487b7160e01b5f52602160045260245ffd5b81516001600160a01b03909116915f91829160200182855af13d156117a5573d67ffffffffffffffff8111610b525761175991604051916117496020601f19601f84011601846110a7565b82523d5f602084013e5b83611846565b8051908115159182611781575b505061176f5750565b635274afe760e01b5f5260045260245ffd5b8192509060209181010312610b4e5760200151801590811503610b4e575f80611766565b61175990606090611753565b9091828202915f1984820993838086109503948086039514611838578483111561182957829109815f0382168092046002816003021880820260020302808202600203028082026002030280820260020302808202600203028091026002030293600183805f03040190848311900302920304170290565b63227bc15360e01b5f5260045ffd5b5050915081156116d6570490565b9061186a575080511561185b57805190602001fd5b630a12f52160e11b5f5260045ffd5b8151158061189b575b61187b575090565b639996b31560e01b5f9081526001600160a01b0391909116600452602490fd5b50803b1561187356fea26469706673582212208db697886e1f380f9bd38639f85840586ffdde15aa94132c0dba9d016f83093764736f6c63430008210033","linkReferences":{}},"methodIdentifiers":{"BASE_BPS()":"6142d409","allowance(address,address)":"dd62ed3e","approve(address,uint256)":"095ea7b3","asset()":"38d52e0f","balanceOf(address)":"70a08231","boostBps()":"e16ca3a4","boostedNftId()":"fbd5bc2f","convertToAssets(uint256)":"07a2d13a","convertToShares(uint256)":"c6e6f592","decimals()":"313ce567","deposit(uint256,address)":"6e553f65","injectYield(uint256)":"cc2587f2","isRenting(address)":"31d11a29","maxDeposit(address)":"402d267d","maxMint(address)":"c63d75b6","maxRedeem(address)":"d905777e","maxWithdraw(address)":"ce96cb77","mint(uint256,address)":"94bf804d","name()":"06fdde03","nftContract()":"d56d229d","onERC1155BatchReceived(address,address,uint256[],uint256[],bytes)":"bc197c81","onERC1155Received(address,address,uint256,uint256,bytes)":"f23a6e61","owner()":"8da5cb5b","previewDeposit(uint256)":"ef8b30f7","previewMint(uint256)":"b3d7f6b9","previewRedeem(uint256)":"4cdad506","previewWithdraw(uint256)":"0a28a477","redeem(uint256,address,address)":"ba087652","renounceOwnership()":"715018a6","rentals(uint256)":"af94a1d1","setBoostBps(uint256)":"1d72f487","stakeNFT(uint256)":"6eb604e0","supportsInterface(bytes4)":"01ffc9a7","symbol()":"95d89b41","totalAssets()":"01e1d114","totalSupply()":"18160ddd","transfer(address,uint256)":"a9059cbb","transferFrom(address,address,uint256)":"23b872dd","transferOwnership(address)":"f2fde38b","unstakeNFT(uint256)":"c1dfa0bb","withdraw(uint256,address,address)":"b460af94"},"id":112}