{"abi":[{"type":"constructor","inputs":[{"name":"coordinator_","type":"address","internalType":"address"},{"name":"keyHash_","type":"bytes32","internalType":"bytes32"},{"name":"subscriptionId_","type":"uint256","internalType":"uint256"}],"stateMutability":"nonpayable"},{"type":"function","name":"CALLBACK_GAS_LIMIT","inputs":[],"outputs":[{"name":"","type":"uint32","internalType":"uint32"}],"stateMutability":"view"},{"type":"function","name":"NUM_WORDS","inputs":[],"outputs":[{"name":"","type":"uint32","internalType":"uint32"}],"stateMutability":"view"},{"type":"function","name":"REQUEST_CONFIRMATIONS","inputs":[],"outputs":[{"name":"","type":"uint16","internalType":"uint16"}],"stateMutability":"view"},{"type":"function","name":"acceptOwnership","inputs":[],"outputs":[],"stateMutability":"nonpayable"},{"type":"function","name":"keyHash","inputs":[],"outputs":[{"name":"","type":"bytes32","internalType":"bytes32"}],"stateMutability":"view"},{"type":"function","name":"lastRandomResult","inputs":[{"name":"","type":"address","internalType":"address"}],"outputs":[{"name":"","type":"uint256","internalType":"uint256"}],"stateMutability":"view"},{"type":"function","name":"owner","inputs":[],"outputs":[{"name":"","type":"address","internalType":"address"}],"stateMutability":"view"},{"type":"function","name":"rawFulfillRandomWords","inputs":[{"name":"requestId","type":"uint256","internalType":"uint256"},{"name":"randomWords","type":"uint256[]","internalType":"uint256[]"}],"outputs":[],"stateMutability":"nonpayable"},{"type":"function","name":"requestRandom","inputs":[],"outputs":[{"name":"requestId","type":"uint256","internalType":"uint256"}],"stateMutability":"nonpayable"},{"type":"function","name":"requestToSender","inputs":[{"name":"","type":"uint256","internalType":"uint256"}],"outputs":[{"name":"","type":"address","internalType":"address"}],"stateMutability":"view"},{"type":"function","name":"s_vrfCoordinator","inputs":[],"outputs":[{"name":"","type":"address","internalType":"contract IVRFCoordinatorV2Plus"}],"stateMutability":"view"},{"type":"function","name":"setCoordinator","inputs":[{"name":"_vrfCoordinator","type":"address","internalType":"address"}],"outputs":[],"stateMutability":"nonpayable"},{"type":"function","name":"subscriptionId","inputs":[],"outputs":[{"name":"","type":"uint256","internalType":"uint256"}],"stateMutability":"view"},{"type":"function","name":"transferOwnership","inputs":[{"name":"to","type":"address","internalType":"address"}],"outputs":[],"stateMutability":"nonpayable"},{"type":"event","name":"CoordinatorSet","inputs":[{"name":"vrfCoordinator","type":"address","indexed":false,"internalType":"address"}],"anonymous":false},{"type":"event","name":"OwnershipTransferRequested","inputs":[{"name":"from","type":"address","indexed":true,"internalType":"address"},{"name":"to","type":"address","indexed":true,"internalType":"address"}],"anonymous":false},{"type":"event","name":"OwnershipTransferred","inputs":[{"name":"from","type":"address","indexed":true,"internalType":"address"},{"name":"to","type":"address","indexed":true,"internalType":"address"}],"anonymous":false},{"type":"event","name":"RandomFulfilled","inputs":[{"name":"requestId","type":"uint256","indexed":true,"internalType":"uint256"},{"name":"randomWord","type":"uint256","indexed":true,"internalType":"uint256"}],"anonymous":false},{"type":"event","name":"RandomRequested","inputs":[{"name":"requestId","type":"uint256","indexed":true,"internalType":"uint256"},{"name":"sender","type":"address","indexed":true,"internalType":"address"}],"anonymous":false},{"type":"error","name":"OnlyCoordinatorCanFulfill","inputs":[{"name":"have","type":"address","internalType":"address"},{"name":"want","type":"address","internalType":"address"}]},{"type":"error","name":"OnlyOwnerOrCoordinator","inputs":[{"name":"have","type":"address","internalType":"address"},{"name":"owner","type":"address","internalType":"address"},{"name":"coordinator","type":"address","internalType":"address"}]},{"type":"error","name":"ZeroAddress","inputs":[]}],"bytecode":{"object":"0x60c0346100d357601f61088b38819003918201601f19168301916001600160401b038311848410176100d7578084926060946040528339810103126100d35780516001600160a01b03811691908290036100d357604060208201519101519133156100d3575f80546001600160a01b0319163317905580156100c457600280546001600160a01b03191691909117905560805260a05260405161079f90816100ec82396080518181816101fc01526105e6015260a05181818161022701526107240152f35b63d92e233d60e01b5f5260045ffd5b5f80fd5b634e487b7160e01b5f52604160045260245ffdfe6080806040526004361015610012575f80fd5b5f3560e01c90816309c1ba2e1461070f575080631fe543e31461062657806333d608f11461060957806361728f39146105cf57806367f082b0146105b457806372cf6e341461059957806379ba50971461052c5780638da5cb5b146105055780638ea981171461042b5780639eccacf614610403578063ac157c46146103c7578063b678647a14610395578063da9f7550146101325763f2fde38b146100b6575f80fd5b3461012e57602036600319011261012e576004356001600160a01b0381169081900361012e575f546001600160a01b03163381900361012e5733821461012e57600180546001600160a01b031916831790557fed8889f560326eb138920d842192f0eb3dd22b4f139c87a2c57538e05bae12785f80a3005b5f80fd5b3461012e575f36600319011261012e575f8052600360209081527f3617319a054d772f909f7c479a2cebe5066e836a939412e32403c99029b92eff80546001600160a01b03191633179055600254604051916001600160a01b039190911690820167ffffffffffffffff811183821017610381576040525f82526040519163125fa26760e31b60208401525115156024830152602482526101d4604483610747565b6040519160c083019183831067ffffffffffffffff8411176103815761ffff936020936040527f000000000000000000000000000000000000000000000000000000000000000081525f610104858301927f000000000000000000000000000000000000000000000000000000000000000084528660408201966003885263ffffffff60608401620186a081528160808601916001835260a087019485526040519d8e9c8d9b8c99634d8e1c2f60e11b8b528960048c01525160248b01525160448a01525116606488015251166084860152511660a48401525160c060c484015280519182918260e4860152018484015e8181018301849052601f01601f191681010301925af18015610376575f90610343575b806020915f526003825260405f2060018060a01b0333166bffffffffffffffffffffffff60a01b8254161790556040519033817fcd4a2eb17c38ad25b7c647235e9d74821d3613b50c9ec8907609b5728bc674b05f80a38152f35b506020813d60201161036e575b8161035d60209383610747565b8101031261012e57602090516102e8565b3d9150610350565b6040513d5f823e3d90fd5b634e487b7160e01b5f52604160045260245ffd5b3461012e57602036600319011261012e576004355f526003602052602060018060a01b0360405f205416604051908152f35b3461012e57602036600319011261012e576004356001600160a01b0381169081900361012e575f526004602052602060405f2054604051908152f35b3461012e575f36600319011261012e576002546040516001600160a01b039091168152602090f35b3461012e57602036600319011261012e576004356001600160a01b0381169081900361012e575f546001600160a01b031633811415806104f0575b6104c6575080156104b7576020817fd1a6a14209a385a964d036e404cb5cfb71f4000cdb03c9366292430787261be6926bffffffffffffffffffffffff60a01b6002541617600255604051908152a1005b63d92e233d60e01b5f5260045ffd5b60025463061db9c160e01b5f908152336004526024929092526001600160a01b0316604452606490fd5b506002546001600160a01b0316331415610466565b3461012e575f36600319011261012e575f546040516001600160a01b039091168152602090f35b3461012e575f36600319011261012e576001546001600160a01b038116330361012e575f80546001600160a01b031980821633908117845593166001556001600160a01b0316907f8be0079c531659141344cd1fd0a4f28419497f9722a3daafe3b4186f6b6457e09080a3005b3461012e575f36600319011261012e57602060405160018152f35b3461012e575f36600319011261012e57602060405160038152f35b3461012e575f36600319011261012e5760206040517f00000000000000000000000000000000000000000000000000000000000000008152f35b3461012e575f36600319011261012e576020604051620186a08152f35b3461012e57604036600319011261012e5760243560043567ffffffffffffffff821161012e573660238301121561012e5781600401359167ffffffffffffffff831161012e573660248460051b8301011161012e576002546001600160a01b0316338190036106f957505f828152600360205260409020546001600160a01b031692156106e55760240135915f5260046020528160405f20557f8f8ec3920627e72cd4e3358c8a710531fbf3f75e40a11da842da17b5b348fbaa5f80a3005b634e487b7160e01b5f52603260045260245ffd5b63073e64fd60e21b5f523360045260245260445ffd5b3461012e575f36600319011261012e576020907f00000000000000000000000000000000000000000000000000000000000000008152f35b90601f8019910116810190811067ffffffffffffffff8211176103815760405256fea26469706673582212200b5b7bbf270f00ccd82d68518a7e6c69f3ea5b0758c38fb27eadfa414414d8ae64736f6c63430008210033","linkReferences":{}},"methodIdentifiers":{"CALLBACK_GAS_LIMIT()":"33d608f1","NUM_WORDS()":"72cf6e34","REQUEST_CONFIRMATIONS()":"67f082b0","acceptOwnership()":"79ba5097","keyHash()":"61728f39","lastRandomResult(address)":"ac157c46","owner()":"8da5cb5b","rawFulfillRandomWords(uint256,uint256[])":"1fe543e3","requestRandom()":"da9f7550","requestToSender(uint256)":"b678647a","s_vrfCoordinator()":"9eccacf6","setCoordinator(address)":"8ea98117","subscriptionId()":"09c1ba2e","transferOwnership(address)":"f2fde38b"},"id":101}